:100000000C9414020C94B7270C9490270C949A2A01
:100010000C94372A0C94C6290C94AF290C943C02FA
:100020000C943C020C945F290C943C020C943C020E
:100030000C943C020C9489290C943C020C943C02D4
:100040000C9446270C943C020C9404280C94DE2754
:100050000C943C020C9455290C943C020C943C02E8
:100060000C9436280C943C0208000000BE922449EF
:10007000123EABAAAA2ABECDCCCC4C3E00000080DA
:10008000BEABAAAAAA3E00000000BF000000803F4D
:100090000000000000084178D3BB4387D1133D190D
:1000A0000E3CC3BD4282AD2B3E68EC8276BED98F3A
:1000B000E1A93E4C80EFFFBE01C4FF7F3F0000007E
:1000C000000007634236B79BD8A71A39685618AEA6
:1000D000BAAB558C1D3CB7CC5763BD6DEDFD753E7D
:1000E000F6177231BF000000803F002E0206030D9C
:1000F00004E905CA070C0B060D210E650F6A10C82E
:100100001193120315341703181819161B431E2FC9
:100110001F65207823E9242A251F26113E030A0B98
:100120000C051214202122232400010203040506D9
:10013000070001020304050001020304050000009A
:1001400000240027002A0000000000250028002BC2
:100150000000000000230026002900040404040419
:100160000404040202020202020303030303030164
:10017000020408102040800102040810200102043B
:10018000081020000000080002010000030407001E
:1001900000000000000000000000000000005F0000
:1001A000000007000700147F147F14242A7F2A12FE
:1001B00023130864623649552250000503000000ED
:1001C0001C2241000041221C0014083E08140808AB
:1001D0003E08080050300000080808080800606069
:1001E000000020100804023E5149453E00427F4075
:1001F0000042615149462141454B311814127F108C
:1002000027454545393C4A494930017109050336BE
:1002100049494936064949291E003636000000562C
:100220003600000814224100141414141400412252
:1002300014080201510906324979413E7E1111111B
:100240007E7F494949363E414141227F4141221C3E
:100250007F494949417F090909013E4149497A7F5E
:100260000808087F00417F41002040413F017F088E
:100270001422417F404040407F020C027F7F0408EF
:10028000107F3E4141413E7F090909063E4151210F
:100290005E7F09192946464949493101017F01011B
:1002A0003F4040403F1F2040201F3F4038403F63B9
:1002B0001408146307087008076151494543007F1B
:1002C00041410002040810200041417F0004020166
:1002D00002044040404040000305000020545454B4
:1002E000787F484444383844444420384444487F64
:1002F0003854545418087E0901020C5252523E7F61
:100300000804047800447D40002040443D007F10F4
:1003100028440000417F40007C041804787C0804D5
:10032000047838444444387C14141408081414180D
:100330007C7C080404084854545420043F44402062
:100340003C4040207C1C2040201C3C4030403C4431
:10035000281028440C5050503C4464544C4400082D
:1003600036410000007F0000004136080006090900
:1003700006000000000000496E697420646F6E651D
:100380002E005265667265736820646F6E652E007C
:1003900042555359206265666F72652077616974B2
:1003A0003D0052414D207772697474656E2C207443
:1003B000726967676572696E6720726566726573D8
:1003C000682E2E2E00000000000000000002140520
:1003D000050000000002010A01000000000000000A
:1003E00000000000000000000000000000060305FF
:1003F000010101010A060101010501050A020602C7
:1004000002000000000501080404040400010203C6
:10041000F4010148423238305448504C3100F40164
:1004200010700101FD2A723211241FBECFEFD8E0F7
:10043000DEBFCDBF11E0A0E0B1E0EEE7F4E702C01F
:1004400005900D92A83EB107D9F725E0A8EEB1E0DE
:1004500001C01D92A937B207E1F712E0C3E1D2E073
:1004600004C02197FE010E94FC34C231D107C9F7B4
:100470000E94E42C0C94323A0C940000833081F0FA
:1004800028F4813099F08230A9F008958730A9F0DE
:100490008830C9F08430B1F4809180008F7D03C032
:1004A000809180008F7780938000089584B58F7746
:1004B00084BD089584B58F7DFBCF8091B0008F7788
:1004C0008093B00008958091B0008F7DF9CFCF93D5
:1004D000DF93282F30E0F901ED57FE4F8491F901A9
:1004E000E159FE4FD491F901E55AFE4FC491CC2356
:1004F000A1F081110E943E02EC2FF0E0EE0FFF1FF1
:10050000EF5AFE4FA591B491EC91ED2381E090E07C
:1005100009F480E0DF91CF91089580E090E0FACF78
:100520000F931F93CF93DF93C5EFD1E00CE11EE44F
:100530008091E4040E946702019731F4219721F031
:10054000C8010197F1F7F4CFDF91CF911F910F917F
:1005500008951F93CF93DF93282F30E0F901ED57D3
:10056000FE4F8491F901E159FE4FD491F901E55A0A
:10057000FE4FC491CC23A9F0162F81110E943E0298
:10058000EC2FF0E0EE0FFF1FE95BFE4FA591B49159
:100590008FB7F894EC91111108C0D095DE23DC934D
:1005A0008FBFDF91CF911F910895DE2BF8CFCF93AE
:1005B000DF93D82FC8E06D2F661F6627661F8BE07C
:1005C0000E94A902DD0F61E08DE00E94A90260E0B7
:1005D0008DE00E94A902C15071F7DF91CF9108957B
:1005E0001F93CF93DF93182FC1EED4E061E0898190
:1005F0000E94A90260E088810E94A902812F0E94C6
:10060000D70261E08881DF91CF911F910C94A902FC
:100610001F93CF93DF93182FC1EED4E060E0898160
:100620000E94A90260E088810E94A902812F0E9495
:10063000D70261E08881DF91CF911F910C94A902CC
:10064000CF93DF9390E0FC01E159FE4F2491855A4E
:100650009E4FFC0184918823C9F090E0880F991F78
:10066000FC01E35CFE4FA591B491FC01E95BFE4FF8
:10067000C591D49161110DC09FB7F8948C912095CC
:1006800082238C938881282328839FBFDF91CF9179
:100690000895623051F49FB7F8943C91822F809571
:1006A00083238C93E8812E2BEFCF8FB7F894EC91B6
:1006B0002E2B2C938FBFEACF3FB7F8948091720214
:1006C00090917302A0917402B091750226B5A89B17
:1006D00005C02F3F19F00196A11DB11D3FBFBA2FD4
:1006E000A92F982F8827BC01CD01620F711D811D94
:1006F000911D43E0660F771F881F991F4A95D1F718
:1007000008958F929F92AF92BF92CF92DF92EF9215
:10071000FF926B017C010E945C034B015C01C114E0
:10072000D104E104F104B9F00E945C03681979096D
:100730008A099B09683E73408105910580F321E099
:10074000C21AD108E108F10888EE880E83E0981EED
:10075000A11CB11CE4CFFF90EF90DF90CF90BF9031
:10076000AF909F908F9008958FEF0895633050F46D
:10077000FC01808191810396F5E06F9F800D911DB2
:100780001124089590E080E008950895AF92BF92FB
:10079000CF92DF92EF92FF920F931F93CF93DF934D
:1007A0006C017B018B01040F151FEB015E01AE187C
:1007B000BF08C017D10759F06991D601ED91FC919E
:1007C0000190F081E02DC6010995892B79F7C501CB
:1007D000DF91CF911F910F91FF90EF90DF90CF901D
:1007E000BF90AF900895FC01538D448D252F30E0CC
:1007F000842F90E0821B930B541710F0CF9608952E
:1008000001970895FC01918D828D981761F0A28D5A
:10081000AE0FBF2FB11D5D968C91928D9F5F9F7320
:10082000928F90E008958FEF9FEF0895FC01918DD6
:10083000828D981731F0828DE80FF11D858D90E043
:1008400008958FEF9FEF0895FC01918D228D892FE0
:1008500090E0805C9F4F821B91098F7399270895C8
:1008600086EE92E00E94240421E0892B09F420E026
:10087000822F089580E090E0892B29F00E943004B7
:1008800081110C9400000895FC01A48DA80FB92FCC
:10089000B11DA35ABF4F2C91848D90E001968F73A8
:1008A0009927848FA689B7892C93A089B1898C91C7
:1008B000837080648C93938D848D981306C0028816
:1008C000F389E02D80818F7D80830895EF92FF92E0
:1008D0000F931F93CF93DF93EC0181E0888F9B8D63
:1008E0008C8D98131AC0E889F989808185FF15C01D
:1008F0009FB7F894EE89FF896083E889F989808140
:100900008370806480839FBF81E090E0DF91CF910E
:100910001F910F91FF90EF900895F62E0B8D10E030
:100920000F5F1F4F0F731127E02E8C8D8E110CC09F
:100930000FB607FCFACFE889F989808185FFF5CFEA
:10094000CE010E944404F1CFEB8DEC0FFD2FF11D81
:10095000E35AFF4FF0829FB7F8940B8FEA89FB8927
:1009600080818062CFCF0F931F93CF93DF938C0151
:10097000D0E0C0E0F801EC0FFD1F6491662341F068
:1009800086EE92E00E946604892B11F02196F2CF48
:10099000CE01DF91CF911F910F910895CF93DF93F7
:1009A000EC01888D8823B9F0AA89BB89E889F98987
:1009B0008C9185FD03C0808186FD0DC00FB607FCBC
:1009C000F7CF8C9185FFF2CF808185FFEDCFCE01EF
:1009D0000E944404E9CFDF91CF91089580913702BE
:1009E00090913802891B990B0895C3960895029639
:1009F00008950F931F93CF93DF93EC010A81802F0B
:100A00008295880F807E0E81000F000F082B88854D
:100A1000082B1A85812F8295880F807E1C85110FE7
:100A2000110F182B8E85182BE881F9810680F7812C
:100A3000E02D4C8162EFCE010995E881F9810680B5
:100A4000F781E02D402F64EFCE010995E881F9810F
:100A50000680F781E02D412F65EFCE01DF91CF9128
:100A60001F910F9109942F923F924F925F926F9234
:100A70007F928F929F92AF92BF92CF92DF92EF922E
:100A8000FF920F931F93CF93DF93CDB7DEB7C55679
:100A9000D1090FB6F894DEBF0FBECDBF1C01299659
:100AA0007FAF6EAF29978A012B963FAF2EAF2B9762
:100AB000DC0118968D919C91019719F4C1010E9457
:100AC000F904D101ED91FC910084F185E02D28E03D
:100AD000AE014F5D5F4F67EFC1010995FE01B19611
:100AE000DE0111969E01275D3F4F419150E070E07D
:100AF00060E04D935D936D937D93E217F307A9F743
:100B0000811133C080E090E0A0ECBFE72B96EEAD02
:100B1000FFAD2B9780839183A283B383F8018083F9
:100B20009183A283B3832996EEADFFAD299780838D
:100B30009183A283B383CB59DF4F0FB6F894DEBF06
:100B40000FBECDBFDF91CF911F910F91FF90EF901E
:100B5000DF90CF90BF90AF909F908F907F906F90DD
:100B60005F904F903F902F90089589809A80AB803E
:100B7000BC8064968CAE9DAEAEAEBFAE64978D80E9
:100B80009E80AF80B88468968CAE9DAEAEAEBFAE90
:100B9000689789849A84AB84BC846C968CAE9DAE35
:100BA000AEAEBFAE6C972D853E854F855889ACE0C3
:100BB000220F331F441F551FAA95D1F789899A899F
:100BC000AB89BC8964E0880F991FAA1FBB1F6A9577
:100BD000D1F7282B392B4A2B5B2B8D899E89AF8926
:100BE000B88D74E0B595A795979587957A95D1F7C7
:100BF000282B392B4A2B5B2B898D9A8DAB8DBC8D85
:100C0000BA2FA92F982F8827CD8CDE8CEF8CF8A0D7
:100C10004C015D018C289D28AE28BF28A0968CAE83
:100C20009DAEAEAEBFAEA097D10150968D919C9176
:100C3000B0E0A0E069017A01F4E0F594E794D7947C
:100C4000C794FA95D1F7C81AD90AEA0AFB0A63E0F1
:100C500055954795379527956A95D1F7880F991F30
:100C6000AA1FBB1F281B390B4A0B5B0BF101A28982
:100C7000B3890E9471334B015C01ABE0B594A7943A
:100C800097948794AA95D1F7A7019601C701B60159
:100C90000E94DC329B01AC01BCE05595479537952D
:100CA0002795BA95D1F7A489B5890E9471332EE0B2
:100CB00095958795779567952A95D1F77501640184
:100CC000C60ED71EE81EF91EC9AEDAAEEBAEFCAEFC
:100CD000A5E0B0E0A70196010E94663360587F4FFF
:100CE0008F4F9F4F672F782F892F992787FD9A95D0
:100CF0000E941E3620E030E048EC52E40E94743539
:100D0000D8016D937D938D939C931397F101F48D8E
:100D1000A596FFAFA597D1015D96BC912E96BFAF6A
:100D20002E97F101F68DA296FFAFA297D1015F96A3
:100D3000BC91BDAFF101F0A1A196FFAFA197D10188
:100D40009196BC91BEABF101F2A1A496FFAFA4971E
:100D5000D1019396BC912D96BFAF2D97F101F4A1CF
:100D6000A396FFAFA397D1019596BC912C96BFAFE8
:100D70002C97F101F6A1A696FFAFA697D101979601
:100D8000BC912F96BFAF2F97FF0CCC08DC2C7601BF
:100D900029AD3AAD4BAD5CAD6C2D7C2D8C2D9C2DD1
:100DA000345F4140510961097109810991092BABF7
:100DB0003CAB4DAB552E3B014C015901C42ED52EF9
:100DC0007B018C010E94793321962FAF21972296C7
:100DD0003FAF229723964FAF239724965FAF249778
:100DE00025966FAF259726967FAF269727968FAFCC
:100DF000279760969FAF6097F101318D208D932FDB
:100E0000990F990B492F592F692F792F892F0E94FC
:100E100079330CE00E94A83429A73FAB442E58AF89
:100E200069AB7AAB8EAF9FAFD1015B963C915B977C
:100E30005A962C91932F990F990B2196AFAC21972D
:100E40002296BFAC22972396CFAC23972496DFAC93
:100E500024972596EFAC25972696FFAC26972796E4
:100E60000FAD279760961FAD6097492F592F692FB7
:100E7000792F892F0E94793308E00E94C134A9A4F8
:100E8000BFA8C42CD8ACE9A8FAA80EAD1FAD0E942B
:100E9000DE3470588F4F9F4FD1015696ED91FC91E3
:100EA0005F01D12CC12CE12CF12C8701E9A7BAA656
:100EB000CBA6DCA6EDA6FEA60FA718ABC12CD12CA5
:100EC000E12CF12C00E010E00E94793301E20E9455
:100ED000C13429A73FAB48AF59AB6AAB7EAF8FAFE8
:100EE000492EA0E00E94F03409F463C2A1962FAD10
:100EF000A1979EA9990F990B2196AFAC21972296A5
:100F0000BFAC22972396CFAC23972496DFAC2497CF
:100F10002596EFAC25972696FFAC269727960FAD22
:100F2000279760961FAD60973EA9492F592F692FCB
:100F3000792F892F0E9479332EAB21963FAF2197CD
:100F400022964FAF229723965FAF239724966FAFD9
:100F5000249725967FAF259726968FAF26972796BD
:100F60009FAF2797A2962FADA2979DAD990F990B92
:100F7000ABA8BCA8CDA8D52C730184013DAD492FE9
:100F8000592F692F792F892F0E94793301E10E940F
:100F9000A834AEA82196BFAC21972296CFAC229759
:100FA0002396DFAC23972496EFAC24972596FFACCD
:100FB000259726960FAD269727961FAD27970E9457
:100FC000DE3459016A017B01582E192F68964CAD09
:100FD0005DAD6EAD7FAD689734E0440F551F661F61
:100FE000771F3A95D1F76C968CAD9DADAEADBFAD88
:100FF0006C97E4E0B595A79597958795EA95D1F715
:10100000842B952BA62BB72B64964CAD5DAD6EADA6
:101010007FAD6497FCE0440F551F661F771FFA955C
:10102000D1F7482B592B6A2B7B2B80E090E0A0E175
:10103000B0E0841B950BA60BB70B3C014D01990C3E
:101040006608762C43019C01AD01662D762D862D18
:10105000962D0FE10E94A83439014A01B62FA72F1F
:10106000F82FE92FA5962FADA5972E969FAD2E9719
:10107000990F990B2E963FAD2E97492F592F692F17
:10108000792F892F03E20E94A834052D0E94DE34B7
:1010900059016A017B018C019301A4016B2F7A2F06
:1010A0008F2F9E2F0E94E734E5E3AE2EFCE0BF2E8B
:1010B000C12CD12CE12CF12C00E010E00E947933FE
:1010C000A9A4BFA8C8ACD9A8EAA8FEAC0FAD142D3E
:1010D0000E94D3332BAB3CAB4DAB59A76EAB7DAF6E
:1010E0008FAB98AF0DE00E94C13429AB9AABA696A6
:1010F0002FADA6972F969FAD2F97990F990BA9A863
:10110000B32EC42ED52EE62EF72E082F1AA92F9611
:101110003FAD2F97492F592F692F792F892F0E9483
:1011200079330E94793309E10E94C134ABA8BCA88D
:10113000CDA8D9A4EEA8FDAC0FA918AD0E94DE344D
:1011400029AB3AAB2A013B014C01A3962FADA397E3
:101150002C969FAD2C97990F990B2C963FAD2C9701
:10116000492F592F692F792F892F0E94793303E155
:101170000E94C13459016A017B018C0129A93AA955
:10118000A201B301C4010E94DE3408E00E94C13410
:1011900059016A017B01E82F192FA4962FADA4975E
:1011A0002D969FAD2D97990F990B2D963FAD2D97AD
:1011B000492F592F692F792F892F04E00E94A834D5
:1011C0000E2F0E94DE34B901CA010E941C3620E0B5
:1011D00030E040E85BE30E94233720E030E048EC59
:1011E00052E40E9474352996AEADBFAD29976D9338
:1011F0007D938D939C931397F10125A5C9ACDAAC2F
:10120000EBACFCACFCE2DF1AF1E0EF0AF108A096CF
:101210008CAC9DACAEACBFACA0973EE0880C991CEA
:10122000AA1CBB1C3A95D1F7D1019C968C91B0E1D8
:101230008B9FC0011124322F3F70832B092E000C8D
:10124000AA0BBB0B44E1880F991FAA1FBB1F4A952D
:10125000D1F7881A990AAA0ABB0AF101A6A5F0E1FA
:10126000AF9FD001112422952F70A22BA7019601C8
:101270000E947133861A970AA80AB90A00E4900EF0
:10128000A11CB11C6FE0B594A794979487946A95BC
:10129000D1F7F101A3A5B0E00E9466332B013C0118
:1012A0007BE075946794579447947A95D1F7F0E86A
:1012B0005F0E611C711CF101A7A50A2E000CBB0B6F
:1012C0000E947133AAE09595879577956795AA95C1
:1012D000D1F7A30192010E94DC329B01AC01BAE07C
:1012E0005595479537952795BA95D1F7405E5F4F4D
:1012F000A1A5B2A50E947133705E8F4F9F4F1EE073
:1013000095958795779567951A95D1F7A5019401DD
:101310000E94DC326B017C010FE0959587957795F3
:1013200067950A95D1F79B01AC010E94DC329B01C5
:10133000AC0187E055954795379527958A95D1F764
:10134000A0A5B0E00E94663324E095958795779537
:1013500067952A95D1F7C61AD70AE80AF90AF7FE5F
:1013600003C0C12CD12C7601C701B60161307105D3
:101370008105F9E19F0724F060E070E080E099E1E9
:101380002CE095958795779567952A95D1F70E94DA
:101390001C3620E030E040E85AE30E9423372B96C9
:1013A000AEADBFAD2B976D937D938D939C931397AB
:1013B000C2CB60E070E080EC9FE715CF2EE0FB0130
:1013C000DC01129601900D922A95E1F70C94F90434
:1013D00020E1FB01DC01D39601900D922A95E1F703
:1013E0000C94DE09CF92DF92FF920F931F93CF935D
:1013F000DF9300D000D0CDB7DEB78C01DC01ED91DA
:10140000FC910084F185E02D21E0AE014F5F5F4F3C
:1014100060ED09958981883509F45CC0803609F052
:1014200061C080E690E0F80191AB80ABD801ED910E
:10143000FC910084F185E02D26E0A801405F5F4F1C
:1014400068E8C8010995F82ED801ED91FC91008457
:10145000F185E02D22E1A8014A5E5F4F6EE8C801E8
:101460000995F822D801ED91FC910084F185E02DD9
:1014700021E0A801485D5F4F61EAC8010995F822A3
:10148000D801ED91FC910084F185E02D27E0A801C1
:10149000475D5F4F61EEC8010995F822F801C484E9
:1014A000D584C114D10491F015861486C8010E9418
:1014B000F9049E012F5F3F4FA901B901C8010E94A5
:1014C0003305D8011D96DC92CE921C97C8010E946C
:1014D000F9040CC088E590E0D801D1969C938E93D6
:1014E000D097A4CFF80111AA10AAF12CF801F2AA02
:1014F0008F2D0F900F900F900F90DF91CF911F9134
:101500000F91FF90DF90CF90089520911002260F49
:101510003327331F21323105ECF42091E002FC0126
:1015200090E080E0243069F082E00895A0911002FC
:101530002191AC0142515E4FA40FB52FB11D2C93E8
:101540000196861798F380911002680F609310023D
:1015500080E0089581E008951092E00281E0809398
:10156000BF021092BA0261E082E10E94A90261E02A
:1015700083E10E94A902E9EBF0E080818E7F808305
:1015800080818D7F808380E28093B80085E48093A2
:10159000BC000895CF93DF9391E09093ED018823F1
:1015A000B9F0C091B800D091BA008091BC008A7B9C
:1015B0008093BC0060E082E10E94A90260E083E1C8
:1015C0000E94A9020E94AC0AD093BA00C093B8004E
:1015D000DF91CF910895CF92DF92EF92FF920F9318
:1015E0001F93CF93DF93D82FC62F613208F098C096
:1015F0000E945C036B017C018091E00281116BC051
:1016000081E08093E0028093BF029FEF9093BE023F
:101610001092BD029C0F9093BC028093BB028091FC
:10162000BB02DD0FD82BD093BB028091BA02813070
:1016300009F078C01092BA020E945C036B017C0131
:101640008091BB028093BB008091E2029091E30203
:10165000A091E402B091E502892B8A2B8B2BA1F09B
:101660000E945C030091E2021091E3022091E402E7
:101670003091E5026C197D098E099F09061717073D
:101680002807390708F448C08091BC0083FDD8CFF3
:1016900085EC8093BC000E945C036B017C0180910F
:1016A000E002813009F440C08091BD028C1710F433
:1016B000C091BD02EAE9F2E0A0ECB2E080E08C1358
:1016C00055C08C2FDF91CF911F910F91FF90EF901C
:1016D000DF90CF9008958091E2029091E302A09173
:1016E000E402B091E502892B8A2B8B2B09F484CF7D
:1016F0000E945C030091E2021091E3022091E40257
:101700003091E5026C197D098E099F0906171707AC
:101710002807390708F070CF8091E1020E94CA0AB9
:10172000C0E0CFCF85EEB5CF8091E2029091E30289
:10173000A091E402B091E502892B8A2B8B2B09F44E
:10174000AECF0E945C030091E2021091E30220916F
:10175000E4023091E5026C197D098E099F09061794
:1017600017072807390708F09ACFD6CF91919D9394
:101770008F5FA5CFCF92DF92EF92FF920F931F93CF
:10178000CF93DF93D091990281E0D13208F09CC0D1
:10179000C09198020E945C036B017C018091E00281
:1017A00081116CC082E08093E00281E08093BF02EF
:1017B0008FEF8093BE021092BD02D093BC02A8E7C7
:1017C000B2E0EAE9F2E080E0D8138DC01092BB02EB
:1017D0008091BB02CC0FC82BC093BB028091BA0290
:1017E000813009F084C01092BA020E945C036B0140
:1017F0007C018091BB028093BB008091E2029091BA
:10180000E302A091E402B091E502892B8A2B8B2B95
:10181000A1F00E945C030091E2021091E30220918A
:10182000E4023091E5026C197D098E099F090617C3
:1018300017072807390708F442C08091BC0083FDD0
:10184000D8CF85EC8093BC000E945C036B017C01C7
:101850008091E002823009F44CC08091BE028F3F3B
:1018600009F469C08091BE02803209F466C080919B
:10187000BE02803309F463C084E026C08091E20296
:101880009091E302A091E402B091E502892B8A2BAA
:101890008B2B09F483CF0E945C030091E20210912C
:1018A000E3022091E4023091E5026C197D098E0972
:1018B0009F09061717072807390708F06FCF80918F
:1018C000E1020E94CA0A85E0109277021092990202
:1018D00010927602DF91CF911F910F91FF90EF90C0
:1018E000DF90CF9008959D9191938F5F6DCF85EE9E
:1018F000A9CF8091E2029091E302A091E402B0911D
:10190000E502892B8A2B8B2B09F4A2CF0E945C0362
:101910000091E2021091E3022091E4023091E5028D
:101920006C197D098E099F090617170728073907C3
:1019300008F08ECFC4CF80E0C7CF82E0C5CF83E070
:10194000C3CF089508950895E09138028091370239
:10195000E81730F4F0E0E054FD4F808190E0089506
:101960008FEF9FEF089590913802809137022FEF0B
:101970003FEF981748F4E92FF0E0E054FD4F208145
:1019800030E09F5F90933802C9010895CF92DF92B3
:10199000EF92FF920F931F93CF93DF937C01CB01C4
:1019A0008A0120917602222389F0EB016B01C40E9B
:1019B000D51ECC15DD0569F06991D701ED91FC913B
:1019C0000190F081E02DC7010995F3CF642F0E94AB
:1019D000850AC801DF91CF911F910F91FF90EF9081
:1019E000DF90CF900895CF93DF931F92CDB7DEB7EE
:1019F0006983209176022223F9F020919902203206
:101A000058F021E030E0FC013383228390E080E055
:101A10000F90DF91CF91089580917702E82FF0E049
:101A2000E858FD4F998190838F5F80937702809370
:101A3000990281E090E0ECCF61E0CE0101960E9436
:101A4000850AF7CFCF93C42F8F5B9F4FFC01808116
:101A500091E0909376028093980210927702109210
:101A6000990283E893E00E94F30C6C2F83E893E0E3
:101A70000E94F30C0E94BA0B81E0CF91089590E090
:101A800080E008954115510529F4EAE7F0E08081EE
:101A90008F7780836A307105B9F0CB01880F991F69
:101AA000880F991F807267706860682B88E10FB695
:101AB000F894A895809360000FBE60936000E0E604
:101AC000F0E0808180648083232BD9F483B7817F09
:101AD000846083BFF89483B7816083BF85B78066D5
:101AE00085BF8F7D85BF7894889583B78E7F83BFB0
:101AF0007894452B29F4EAE7F0E0808180688083C0
:101B0000089583B7817F846083BFF89483B7816031
:101B100083BF7894889583B78E7F83BF7894E9CF0D
:101B2000FC018289938960E0911101C061E00C940D
:101B3000A90261E08AE00C94A9028EBD0DB407FEF3
:101B4000FDCF8EB508958CE00E9467028111FBCF16
:101B5000089560E08AE00C94A902CF93C82F0E94F8
:101B6000A90D0E94A30D8C2F0E949D0DC82F0E94CD
:101B7000990D8C2FCF91089586E30E94AD0D8DE3D2
:101B80000E94AD0D8AE30C94AD0DCF93DF93D82F57
:101B9000C62F0E94A90D0E94A30D8D2F8C2B0E9491
:101BA0009D0D80E00E949D0DC82F0E94990D8C2FE5
:101BB000DF91CF910895EFE6F0E08081816080832E
:101BC00008958B3030F4E82FF0E0E25EFE4F849110
:101BD00008958FEF0895FC0110860895FC01962F5B
:101BE00097706085687F692B6087089508958130BC
:101BF00011F08FEF089580E00895882311F08FEFA2
:101C0000089581E00895EDE0F4E0E4918E1761F02D
:101C1000EEE0F4E0E4918E1749F0EFE0F4E0E491B7
:101C20008E1731F08FEF089580E0089581E00895D8
:101C300082E00895833030F4E82FF0E0E35FFB4F5B
:101C4000849108958FEF0895FC018289938961E062
:101C5000911101C060E00C94A9021F93CF93DF9310
:101C6000FC01238520FF11C0162FEC010E94A90D55
:101C70000E94A30D0E94990D11110E94BC0D84E3D6
:101C80000E94AD0D8B858E7F8B87DF91CF911F9149
:101C900008950895E0913502F0913602838581FD23
:101CA00003C083858C60838708950895089580E03C
:101CB000089508950F931F93CF93DF9326E531E0A6
:101CC000FC01318320838C01065C1F4F81F0EC0105
:101CD000CD52DF4F0C171D0751F0C959D109E881CA
:101CE000F9810280F381E02DCE010995F3CFDF91D8
:101CF000CF911F910F9108950895089522E631E044
:101D0000FC01318320830C945A0E0895982FEEE144
:101D1000F1E080E02491921729F08F5F31968B30AB
:101D2000C9F78FEF08950C94860ECF93C62F91E0DC
:101D30009093760299E29093980210927702109213
:101D40009902682F606A83E893E00E94F30C6C2F7D
:101D500083E893E00E94F30CCF910C94BA0B8F921E
:101D60009F92AF92BF92CF92DF92EF92FF920F932A
:101D70001F93CF93DF93EC016B01942E122F1092DF
:101D800038021092370210927702109299020E9444
:101D9000AC0A81EA9CE090930F0280930E0282EAE3
:101DA0009CE090931302809312028BE0882E7E01B8
:101DB0008BE1E80EF11C5E01EDE4AE0EB11CC70133
:101DC0000E94F209F5019081992311F081110AC056
:101DD0008A94882039F064E670E080E090E00E9408
:101DE0008103EDCFFE01E55BFF4F8081918180365D
:101DF0009105E1F581E0888365E675E0C7010E9401
:101E0000E809DA82C982692D990C770B880B990B46
:101E10000E941E3620E030E040E251E40E9474351A
:101E20006B837C838D839E83612F110F770B880BCF
:101E3000990B0E941E3620E030E040E251E40E94FF
:101E400074356F83788789879A87602F000F770BA7
:101E5000880B990B0E941E3620E030E040E251E4EE
:101E60000E9474356B877C878D879E87DF91CF9129
:101E70001F910F91FF90EF90DF90CF90BF90AF90A8
:101E80009F908F90089580917C00807380937C0058
:101E900080917C00806480937C0080917C008E60C7
:101EA00080937C0062E370E080E090E00E94810318
:101EB00024E030E090E080E060E170E040917A0062
:101EC000406440937A0042E350917A0056FF08C084
:101ED000FB013197F1F74150B9F730E020E021C024
:101EE00040917800509179005370840F951F2150D4
:101EF000310921F79C0136952795369527958370F2
:101F00009927029758F02F5F3F4F50E040E060E084
:101F100070E381E190E00E942E3303C0211531056A
:101F2000A1F7C90108950895862728E0BC01769598
:101F30006795AC014170552780FF02C041E050EA2F
:101F4000CB0184279527215089F70895FC01108241
:101F500011821282138216821582148211861086D3
:101F60001782128613860895FC018081811109C0B1
:101F70008181811106C081E09281911103C080E0CE
:101F8000089581E00895DC01FB019C918081981304
:101F90000BC011969C9111978181981305C081E027
:101FA00012962C919281291380E00895FC013381CF
:101FB000FB012381321302C00C94C30F80E008950B
:101FC000CF93DF9300D000D0CDB7DEB7FC0180897E
:101FD0009485998395859A8396859B838C838823A2
:101FE00089F0BF01645F7F4FCE0101960E94D60F3A
:101FF000811108C082E00F900F900F900F90DF9139
:10200000CF91089581E0F7CF2FB7F894FC0180813C
:1020100091812FBF0895FF920F931F93CF93DF936A
:10202000EC018B01FFB6F8940E9404109C019FB74D
:10203000F894F801318320839FBF8FB7F8941983F8
:1020400008838FBFFFBEDF91CF911F910F91FF904B
:1020500008956F927F928F92DF92EF92FF920F938B
:102060001F93CF93DF937B0122E0E20EF11CDB0193
:1020700015962D913D914C91232B242B09F44DC0A5
:10208000EB01DFB6F8942C8122602C838C010E9436
:102090000410009709F43EC0FC013297A1F065805E
:1020A000768087802D813E814F81CF010296621616
:1020B0007306840650F42619370948092D833E8398
:1020C0004F838C01E4CF90E080E02FB7F8949B839E
:1020D0008A832FBF8FB7F894D801ED92FC928FBFFF
:1020E000309761F085819681A7812D813E814F8156
:1020F000821B930BA40B85839683A783DFBEDF919E
:10210000CF911F910F91FF90EF90DF908F907F9074
:102110006F900895F0E0E0E0D8CFB7010296DF912C
:10212000CF911F910F91FF90EF90DF908F907F9054
:102130006F900C940B101F93CF93DF93EC01FB0176
:102140002885922F9770943079F040F4923051F0B6
:10215000933039F1DF91CF911F910895953009F1B6
:102160009630C1F711E012C023FD21C02A853B85BE
:102170002550310913E02115310541F040E02D8350
:102180003E834F83BE01CF010E942910E881F9816F
:102190000680F781E02D612FCE01DF91CF911F9155
:1021A000099423FDD7CF2A853B8515E0E4CF25E0B0
:1021B00030E012E0E3CF0F931F93CF93DF93EC0156
:1021C0008B01E88981E08E0F888BEC0FFD2FF11DCC
:1021D000228530E0A4E6B0E00E9450332AE030E0EF
:1021E00040E050E00E942E332D833E834F83BE019A
:1021F000C8010E94291088898170DF91CF911F91B9
:102200000F9108950F931F93CF93DF93EC018B01F0
:10221000E881F9810680F781E02D09959B878A87FF
:102220008C859D85AE858D839E83AF83BE01C8015D
:10223000DF91CF911F910F910C942910EF92FF9293
:102240000F931F93CF93DF93EC01FFB6F8940E9496
:1022500004108C01892B71F0EFB6F894CE010E9426
:1022600004100E9404109C019FB7F89439832883BE
:102270009FBFEFBEFFBEC801DF91CF911F910F91AD
:10228000FF90EF900895BF92CF92DF92EF92FF926E
:102290000F931F93CF93DF93EC01FFB6F8948C81DB
:1022A0008D7F8C8387E993E00E9404100097C9F129
:1022B0009C012250310987E993E02115310589F10C
:1022C00089010E5F1F4FC217D30709F50E941E1127
:1022D000C8010E940410009779F0FC01329761F068
:1022E00085819681A7812D813E814F81820F931F29
:1022F000A41F85839683A783FFBEDF91CF911F9193
:102300000F91FF90EF90DF90CF90BF900895C8019C
:102310000E940410009729F09C0122503109C80145
:10232000CCCF6E0182E0C80ED11CEFB6F894BFB6D8
:10233000F89489E993E00E940410EC0129E933E064
:10234000209779F010E000E0CC16DD0609F4890151
:10235000CE010E9404109E010115110521F4EC012B
:10236000EFCF10E000E0BFBE0115110511F4EFBE84
:10237000C3CFC8010E941E11FACF0F931F93CF93B2
:10238000DF93FC01C085D18589850E94670298850D
:1023900093FB002700F910E080171106C1F180FBC4
:1023A00093F99887892F8770292F287093FD02C091
:1023B000813069F5182F833019F1853009F18130AA
:1023C00079F414E0CE010E94431185E090E0A0E092
:1023D0008D839E83AF83BE0187E993E00E9429101D
:1023E00088858770811799F0E881F9810680F781E7
:1023F000E02D612FCE01DF91CF911F910F910994B4
:10240000222371F312E08330E9F216E0DBCFDF9193
:10241000CF911F910F91089587EA93E00E94431195
:1024200067EA73E087E993E00C9429108F929F92FA
:10243000AF92BF92CF92DF92EF92FF92CF93DF9352
:10244000EC014A015B0187E993E00E9404100097C8
:10245000B9F481E08887CE010E9443118D829E826B
:10246000AF82BE0187E993E0DF91CF91FF90EF90BB
:10247000DF90CF90BF90AF909F908F900C942910D9
:102480000297C12CD12C7601009719F3FC0125810C
:1024900036814781642FA90170E0C40ED51EE61E67
:1024A000F71EC817D90739F002960E94041000974A
:1024B00081F20297E9CFC814D904EA04FB0448F278
:1024C000DF91CF91FF90EF90DF90CF90BF90AF90D2
:1024D0009F908F90089589E993E00E941E11FC015E
:1024E000009781F0029771F022812D7F2283DC0119
:1024F000ED91FC910190F081E02D67E973E0099581
:1025000081E0089580E00895CF92DF92FF920F93CB
:102510001F93CF93DF938C01FFB6F8940E940410B1
:10252000009769F1EC01229751F18D819E81AF8175
:102530000197A1098D839E83AF83680182E0C80E55
:10254000D11C8D819E81AF81892B8A2BC1F4C8015A
:102550000E941E118C8180FF1CC08D7F8C83E881BE
:10256000F9810190F081E02DB801CE010995C801F3
:102570000E940410009719F0EC01229711F7FFBE9A
:10258000C801DF91CF911F910F91FF90DF90CF9005
:102590000895BE016E5F7F4FC6010E940B10E7CF0A
:1025A000EF92FF920F931F93CF93DF937A01D22F75
:1025B0008C010F5B1F4FF801808191E090937602B0
:1025C00080939802109277021092990283E893E028
:1025D0000E94F30C0E94BA0B6D2FD13208F060E21A
:1025E000F80180810E94EB0A182F10923802809324
:1025F0003702C0E080913802181751F083E893E069
:102600000E94B30CF701EC0FF11D8083CF5FF2CF76
:1026100081E0CD1380E0DF91CF911F910F91FF906A
:10262000EF900895CF93DF9391E09093760299E233
:10263000909398021092770210929902682F606A24
:1026400083E893E00E94F30C0E94BA0B62E089E2F7
:102650000E94EB0A109238028093370283E893E0DD
:102660000E94B30CEC0183E893E00E94B30C20E0DD
:10267000382FC9018C2B9D2BDF91CF9108954F925C
:102680005F926F927F928F929F92AF92BF92CF9202
:10269000DF92EF92FF920F931F932B013C014901B0
:1026A0005A016701AC019B010E94E03781114FC0C4
:1026B000A5019401C501B4010E94E037811147C012
:1026C000A8019601C801B6010E94E03781113FC000
:1026D00024EF3DEF44ED5BE3C301B2010E942337D9
:1026E0002B013C01AC019B01C501B4010E940335E3
:1026F00023E333E948E853E40E9403359B01AC012E
:10270000C301B2010E9474359B01AC0160E070E02E
:1027100080E89FE30E94023528E539E348EA50E467
:102720000E9490379B01AC01C801B6010E9474352C
:102730001F910F91FF90EF90DF90CF90BF90AF90DF
:102740009F908F907F906F905F904F90089560E082
:1027500070E080EC9FE7ECCF1F93CF93DF931F9245
:10276000CDB7DEB7162F0E94860E8F3F99F060918D
:10277000DE037091DF03680F711D198341E050E0A3
:10278000CE0101960E94C43281E00F90DF91CF917B
:102790001F91089580E0F9CFEF92FF920F931F935E
:1027A000CF93DF931F92CDB7DEB78C017B01E80E8C
:1027B000F91E198241E050E0B801CE0101960E9455
:1027C000C4320F5F1F4FE016F10699F781E00F90BA
:1027D000DF91CF911F910F91FF90EF900895CF93CC
:1027E000DF931F92CDB7DEB7EDE0F4E0E4916E1712
:1027F000E9F0EEE0F4E0E4916E17D1F0EFE0F4E000
:10280000E4916E1317C062E0FC0180819181680F32
:10281000792F711D498341E050E0CE0101960E945D
:10282000C43281E00F90DF91CF91089560E0ECCF4A
:1028300061E0EACF80E0F6CF0F931F93CF93DF9351
:10284000EC018B010E944311CE010E94240EB801BD
:1028500083E0660F771F8A95E1F76B537C4F48E062
:1028600050E0CE0108960E9476328885882389F050
:10287000188A198A67E973E0CE010E94DB108C89FF
:10288000882339F0CE01DF91CF911F910F910C94E5
:10289000900DDF91CF911F910F9108950F931F938A
:1028A000CF93DF9300D01F92CDB7DEB78B0143E00B
:1028B00050E0BC01CE0101960E9476329A818B8154
:1028C0002981F8012083918382830F900F900F90CC
:1028D000DF91CF911F910F9108951F93CF93DF93B5
:1028E000EC011FB7F89498898885981778F4CE0181
:1028F0000E94DB101FBF8823D9F08C898823F1F058
:10290000CE01DF91CF911F910C94900D188A99857B
:10291000992369F389898F5F898B891740F348E090
:1029200050E065EC73E0CE0108960E9476321FBF3E
:10293000CE01DF91CF911F910C94240EDF91CF91A6
:102940001F9108958F929F92AF92BF920F931F9302
:10295000CF93DF93CDB7DEB7A1970FB6F894DEBF64
:102960000FBECDBF19A2423008F44AE08E010F5DC0
:102970001F4F842E912CB12CA12CA50194010E94F3
:102980002E33E62FB901CA01EA3044F5E05DD801E3
:10299000EE938D01232B242B252B79F790E080E0FB
:1029A000109769F0FD0101900020E9F73197AF0120
:1029B0004A1B5B0BBD0186EE92E00E94C603A19606
:1029C0000FB6F894DEBF0FBECDBFDF91CF911F9140
:1029D0000F91BF90AF909F908F900895E95CD7CFF3
:1029E00042E050E060EB71E086EE92E00C94C603AA
:1029F000CF93DF930E94B304EC010E94F0148C0F7C
:102A00009D1FDF91CF9108952F923F924F925F9239
:102A10006F927F928F929F92AF92BF92CF92DF92EE
:102A2000EF92FF920F931F93CF93DF93CDB7DEB753
:102A30006B970FB6F894DEBF0FBECDBF60E08091FC
:102A4000E3040E94A9026AE070E080E090E00E9446
:102A5000810361E08091E3040E94A9026AE070E0D2
:102A600080E090E00E9481030E94900282E10E9437
:102A700008038CE19EE40197F1F70E94900287E73A
:102A800093E00E94F81481E00E94080387EC0E9402
:102A9000F00280E00E94F00280E00E94F00281E1FA
:102AA0000E94080383E00E94F00284E40E9408036D
:102AB00080E00E94F00288E10E94F00285E40E941A
:102AC000080380E00E94F00280E00E94F00287ECA0
:102AD0000E94F00280E00E94F0028CE30E94080352
:102AE00081E00E94F00288E10E94080380E80E94D1
:102AF000F0028EE40E94080380E00E94F0028FE45E
:102B00000E94080380E00E94F00280E00E94F00230
:102B100084E20E94080361E08091E2040E94A9021D
:102B200060E08091E1040E94A90210E003E08824A3
:102B30008394912CE5E03E2EF0E8EF2EF12CA7ECEB
:102B40005A2E6E014AE1C40ED11C49E150E06FEFEC
:102B500070E0CE0101960E940A3AA090E504AA20F6
:102B600009F4E0C0B52CB11A51E0A51201C0B12E94
:102B70008CEF8B0D62E10E94EC32692EA82FB0E041
:102B8000892F602F0E94F832482F50E030E020E07B
:102B900098E2492E6CE0262E722E61E0852D821B74
:102BA000A612822F642D0E94EC32289EF00111247F
:102BB000EF51FB4F8581882309F445C0993008F413
:102BC00042C087EF890F853108F03DC073E07B1567
:102BD000D0F5EA0FFB1F658190EE960F903698F5C1
:102BE0009EE0961580F16052770B369EF001379E7D
:102BF000F00D1124E40FF51FE956FE4FE491F0E0CB
:102C0000602F0E94F83202C0F595E7958A95E2F7A9
:102C1000E0FF19C0F90183E0F595E7958A95E1F7A2
:102C200061E070E06C0F7D1FE60FF71F872D877046
:102C3000B70102C0769567958A95E2F7962F909531
:102C40008081892380832F5F3F4F283C310509F025
:102C5000A3CFBE016F5F7F4F5B01F50181915F01E3
:102C60000E94D702AC14BD04C1F71F5F183C09F0E5
:102C70006CCF61E08091E1040E94A90282EA93E0B6
:102C80000E94F81482E20E94080387EF0E94F0027B
:102C900080E20E94080380E993E00E94B3048091DF
:102CA000E4040E9467026C01990FEE08FF084AE0F5
:102CB000C701B601F7FE0DC06DE286EE92E00E94FC
:102CC000660466277727CB016C197D098E099F0959
:102CD0004AE00E94A2140E94F0140E94900282E82E
:102CE00093E00E94F81480E10E94080381E00E94B2
:102CF000F0026B960FB6F894DEBF0FBECDBFDF912A
:102D0000CF911F910F91FF90EF90DF90CF90BF90E8
:102D1000AF909F908F907F906F905F904F903F907B
:102D20002F900895812F68E20E94EC32A82F2CE0AA
:102D3000289FF0011124EF51FB4F8581882309F46E
:102D400088CF993008F485CF87EF890F853108F057
:102D500080CF602F0E94F832B40102C0660F771F47
:102D60008A95E2F7A29FD0011124AA51BB4FE4E05B
:102D70007E2E8D91882309F46CCF9AEC791609F494
:102D800068CF90EE980F903618F0E2E17E0EF1CF0A
:102D90008052990B389EA001399E500D1124672C4A
:102DA00030E020E0CA0189569E4F9B8F8A8FEA8DC2
:102DB000FB8DE20FF31FE491F0E0E623F723862D6D
:102DC00090E0412CEF2B41F42F5F3F4F93E0690ED1
:102DD0002530310561F7D9CF883CB0F7FC0143E0DD
:102DE000F595E7954A95E1F7AA24A394B12CAC0E8A
:102DF000BD1EEA0DFB1D482F4770B42EA70102C06F
:102E000056954795BA94E2F75A01A094B080AB204A
:102E1000A0824394019653E04512DECFD5CF85EDD5
:102E20008093BC008091E2029091E302A091E402C1
:102E3000B091E5020796A11DB11D23E0B695A795B7
:102E4000979587952A95D1F72091BC0024FD03C062
:102E50001092E00208954091E2025091E3026091E5
:102E6000E4027091E502452B462B472B69F300974E
:102E7000A105B10541F025E12A95F1F70000019780
:102E8000A109B109E1CF8091E1020C94CA0ACF9364
:102E9000CFEF86E30E94AD0DC150807731F08AE11B
:102EA0008A95F1F700C0C111F4CF8AE30E94AD0DFD
:102EB00089E3CF910C94AD0DEF92FF921F93CF93C6
:102EC000DF937C01D62F142FC22F0E94A90D0E94E0
:102ED000A30D8D2F0E949D0D812F0E949D0D0E949C
:102EE000990D60E88D2F0E94C50D1817B1F080E094
:102EF000CC2369F02FEF2C0F412F6D2FC7010E94BB
:102F00005C17EFECF7E03197F1F700C00000DF91BC
:102F1000CF911F91FF90EF90089581E0F8CFCF936C
:102F2000DF931F92CDB7DEB7198241E050E0BC01BC
:102F3000CE0101960E94B43289810F90DF91CF912A
:102F40000895DC01EDE0F4E0E4916E1769F0EEE045
:102F5000F4E0E4916E1781F0EFE0F4E0E49182E0B8
:102F60006E1719F080E0089580E02D913C91820F5A
:102F7000932F911D0C948F1781E0F7CFCF93DF93A0
:102F8000EC0188E10E94860E8F3F59F0288139813B
:102F9000820F932F911D0E948F178170DF91CF9127
:102FA000089580E0FBCF8A960E94BE17811109C068
:102FB00064E070E090E080E00E94CC13F0E0E0E09C
:102FC000099408950F931F93CF938C01862FC42FDC
:102FD0000E94860E8F3F59F0F80120813181820FC7
:102FE000932F911DCF911F910F910C948F178C2FC0
:102FF000CF911F910F910895EF92FF920F931F931E
:10300000CF93DF93EC018B0140E06CE0C8010E949C
:10301000E217F82E40E06BE0C8010E94E217E82EAC
:1030200040E06AE0C8010E94E2178883E982FA82E0
:10303000CE01DF91CF911F910F91FF90EF900895F6
:10304000EF92FF920F931F93CF93DF93CDB7DEB72D
:1030500028970FB6F894DEBF0FBECDBF8C017C0160
:103060008AE2E80EF11C40E062E1C7010E94E2172B
:10307000D8011296ED91FC91878F88E0EAE0F1E0AB
:10308000DE01119601900D928A95E1F740E064E22D
:10309000C7010E94E217873008F540E064E2C701EB
:1030A0000E94E217E1E0F0E0EC0FFD1FE80FF11DD8
:1030B000D80112968D919C9123E040816EE3C096D9
:1030C00028960FB6F894DEBF0FBECDBFDF91CF912B
:1030D0001F910F91FF90EF900C945C1787E0E2CF67
:1030E0000F931F93CF938C0140E062E20E94E2179E
:1030F000C82F40E063E2C8010E94E2172C2F30E0A5
:10310000322F2227820F932F911DCF911F910F9164
:103110000895DF92EF92FF920F931F93CF93DF9367
:1031200000D000D000D0CDB7DEB77C01DC011C960A
:103130008D919C919E838D8363E0CE0105960E94C4
:10314000A117082FF701848595859C838B8362E006
:10315000CE0103960E94A117D82ED7011C968D91FF
:103160009C919A83898361E0CE0101960E94A11708
:10317000182FD7011896ED91FC91848195810E94BA
:1031800070182D2D412FBC01C701C7960E94AF0EAC
:1031900026960FB6F894DEBF0FBECDBFDF91CF915C
:1031A0001F910F91FF90EF90DF900895CF93DF93E1
:1031B000EC01CB011A82198218821B82642F0496BB
:1031C0000E94B603009731F044E050E0BC01CE010C
:1031D0000E94B432CE01DF91CF910895EF92FF9219
:1031E0001F93CF93DF9300D000D0CDB7DEB77C0123
:1031F00010E0412FB701CE0101960E94D618CE01F2
:1032000001960E94B40F882321F01F5F133089F7C5
:103210001FEF812F0F900F900F900F90DF91CF91A4
:103220001F91FF90EF900895AF92BF92CF92DF92DF
:10323000EF92FF921F93CF93DF9300D000D0CDB7D2
:10324000DEB77C016B0110E05C0184E0A80EB11CCC
:10325000412FB701CE0101960E94D618B601CE01CA
:1032600001960E94D60F882379F01B821A82198258
:103270001C82612FC5010E94B60344E050E0BC01EE
:10328000CE0101960E94C4321F5F133009F781E01E
:103290000F900F900F900F90DF91CF911F91FF90A3
:1032A000EF90DF90CF90BF90AF900895AF92BF9214
:1032B000CF92DF92EF92FF921F93CF93DF9300D0D4
:1032C00000D0CDB7DEB77C016B015A0110E0412F71
:1032D000B601CE0101960E94D618B501CE01019625
:1032E0000E94D60F8823C1F0612FC60104960E9468
:1032F000B6030496F70191838083C7010F900F9066
:103300000F900F90DF91CF911F91FF90EF90DF9082
:10331000CF90BF90AF9008951F5F1330C1F690E03B
:1033200080E0E8CFCF93DF9300D000D000D01F9291
:10333000CDB7DEB7FC0121111FC082A593A59A83EA
:1033400089838BE08B8381EE9DE09D838C8383E971
:103350009EE09F838E8329813A814B815C816D81C0
:103360007E818F8190E027960FB6F894DEBF0FBE66
:10337000CDBFDF91CF910895662331F181A58617E6
:1033800050F104A4F5A5E02D213069F4448555855C
:1033900083E09EE02AE13EE063E05A8349836B8349
:1033A0003D832C83D6CF2430B1F4BF01685F7F4FBB
:1033B000CE0101960E94561949815A8187EF9DE0FE
:1033C0002DEF3DE061E0E9CF90E080E030E020E0EB
:1033D00050E040E0E2CF90E080E030E020E060E0CC
:1033E000F7CF0E94EF39AF92BF92CF92DF92EF9268
:1033F000FF920F931F93CF93DF93EC017B018B859B
:103400008B7F8B878E01035F1F4F60EC8BE30E94E5
:10341000C50D18164CF1D12C0E94BC0D84E30E94FE
:10342000AD0DBB24BA94BD0CDD2009F47DC057E07E
:103430005B1508F456C01C864C858D8596E7982749
:103440009D8721E04150550B622F70E0F801E60F97
:10345000F71F9081641775070CF045C084528927C7
:1034600080832F5F892FF0CF60E88FE30E94C50D26
:10347000D82E4CE1481778F20E94A90D0E94A30DA6
:103480008FEF0E949D0DC02E58018A2D8C198D152D
:1034900038F480E00E949D0DF50181935F01F5CF26
:1034A0000E94990D60E88FE30E94C50D282F30E03F
:1034B000082E000C990B88279170A901481B590B05
:1034C000CA0157FD0196959587959195819591092A
:1034D000865B898360E88FE30E94C50D87FF9BCFE1
:1034E0009BCFDC86A9CF8E85892780834D2D50E028
:1034F000B801C70101960E94013A87E08B15A0F040
:10350000F70110821C8660E0CE010E942D0EF701AB
:103510008081DF91CF911F910F91FF90EF90DF900D
:10352000CF90BF90AF900895F701D082EBCF2F924C
:103530003F924F925F926F927F928F929F92AF9243
:10354000BF92CF92DF92EF92FF920F931F93CF9390
:10355000DF93CDB7DEB7A3970FB6F894DEBF0FBEEB
:10356000CDBF6C017B01FA018081DB0117968C9342
:103570001797818118968C931897828119968C934E
:103580006FE873E0CA010E94C30F882329F0F70196
:1035900082818F7D84608283B7016C5F7F4FD6010B
:1035A00096968D919C910E944E14F70182818068BD
:1035B000828346E064E1D60114968D919C910E942D
:1035C000E217B82E811102C0BB24B394F601048126
:1035D000158185E00E94860E8F3F09F460C0D801F6
:1035E0002D913C91820F932F911D0E948F17782E61
:1035F00072947694769493E0792241F0F601828178
:10360000938162E070E002960E941C14C70101964B
:103610009BA38AA38AE0482E512C612C170197E0C6
:10362000290E311CD60112960D911C91F801F096CD
:10363000FF8FEE8FD70112968C91807188A348017D
:10364000BDE38B0E911CF701408150E06AA17BA184
:10365000C4010E94013AD7018C919FEF980F9830D6
:1036600008F5F80114AEF80124AD85ADF6E78F2713
:10367000D801DD968C93DD97DE969C9161E0215018
:10368000330B462F50E0F401E40FF51F7081421711
:10369000530764F48452872780836F5FF2CF7724C7
:1036A0007394ACCFD801DC968C93DDCF892F87271C
:1036B0008083F801F4ADF9A3B8016E5C7F4FD801A7
:1036C000DA96AC90DA97AA2039F0EFECF7E0319770
:1036D000F1F700C00000F3CFD7964D925D926C9247
:1036E000D997E1E0DA96EC9387E993E00E942910FC
:1036F00061E08E8D9F8D0E942D0EE89885EC93E001
:103700009093010180930001D801DB968C91DB97A7
:103710008260DB968C9386E30E94AD0D8BE30E9462
:10372000AD0D85E30E94AD0D60EC85E30E94C50DF3
:10373000833139F0E7ECF0E03197F1F700C0000099
:10374000F3CF8FE19EE40197F1F700C0000098A14C
:10375000992349F0AFE7BBE8E8E0A150B040E04072
:10376000E1F700C000000E94A90D0E94A30D8FE3A5
:103770000E949D0D89A10E949D0D0E94990D0E949D
:10378000A90D0E94A30D8FE70E949D0D88A28E8E29
:103790009F8E8E8DF8A18F1B29A1821740F4AE8DCC
:1037A000BF8D8D91BF8FAE8F0E949D0DF2CF0E9475
:1037B000990D60EC85E30E94C50D8D3039F0EFE87E
:1037C000F1E03197F1F700C00000F3CFD801DB96AC
:1037D0008C91DB978D7FDB968C93EAE4FEE0F0938F
:1037E0000101E0930001809169008C7F82608093E9
:1037F0006900E89AD70112968C9185FF7AC0C101C1
:103800000E94B40F882309F474C0BA94CE010196C3
:103810000E94A60F1CE3F60182819381DC01DB96F6
:103820002C9122FD2EC0EFE1FEE43197F1F700C0AC
:103830000000115081F7B110F5CE772041F0F6016C
:103840008281938164E070E002960E941C148A2DAC
:10385000A3960FB6F894DEBF0FBECDBFDF91CF9118
:103860001F910F91FF90EF90DF90CF90BF90AF909E
:103870009F908F907F906F905F904F903F902F9090
:103880000895BE016F5F7F4FC0960E94F319882391
:1038900051F2D70111969C918A819813C4CFBE0131
:1038A0006B5F7F4FC1010E94C30F882309F4BBCF18
:1038B0008C8110E0823041F48B85182F1095111FF8
:1038C0001127111F87FDB12CF701828181FD03C0F3
:1038D0008B8180FF0BC0D60112968D919C9142E3A3
:1038E00050E060E070E087960E941612112309F400
:1038F000A2CF711003C0AA24A394A9CFD601129617
:103900008D919C91AA24A39463E070E09DCF0F93C6
:103910001F93CF93DF93EC018B018AE18F831A868B
:10392000198648871A8A6EA17FA1FB01719684913E
:103930003197E491E98B8E8F625F7F4F42E050E0D8
:10394000CE0142960E9476326EA17FA16D5F7F4FBD
:103950004AE050E0CE0144960E94763289A58F8FCE
:103960006EA17FA16E5E7F4F42E050E0CE01809657
:103970000E947632BE01695F7F4FA801CE01DF91C0
:10398000CF911F910F910C94971AFF920F931F9351
:10399000CF93DF9300D01F92CDB7DEB78C01FC012F
:1039A0008085282F2770962F9770887F892B808796
:1039B000623071F50789108DF801F680F394F68274
:1039C00064817581CE0101960E94FC174F2DBE01C6
:1039D0006F5F7F4FC8010E94871CF801828193812D
:1039E00061E070E002960E941C14F80182819381CC
:1039F00040ED57E060E070E087960E9416120F904D
:103A00000F900F90DF91CF911F910F91FF9008952C
:103A10006530A9F78789908D253059F48A960E94E0
:103A2000BE178111ECCFF8018789908D0E94D317C2
:103A3000E6CFFC018281938167E070E002960E94EC
:103A40001C14DDCF2F923F924F925F926F927F9224
:103A50008F929F92AF92BF92CF92DF92EF92FF929E
:103A60000F931F93CF93DF93CDB7DEB7A8970FB611
:103A7000F894DEBF0FBECDBF8C017B011BA21AA242
:103A800019A2BE016F5D7F4FDC0196968D919C91CE
:103A90000E944E14F7013796F8A7EFA3BE016F5DA1
:103AA0007F4FCF010E94C30FC82E882309F479C02D
:103AB000D8011296CD90DC905601B2E3AB0EB11C4A
:103AC000C5010E9443118AE090E0A0E0F60187ABB7
:103AD00090AFA1AF81E082AFB50187E993E00E948A
:103AE00029105701F4E0AF0EB11CB501C801C6960C
:103AF0000E94C30F8111BCC0D70114968C911497FA
:103B0000F80186AB15968C91159787AB16968C911C
:103B1000169780AF11968C91119781AF13968C9167
:103B200013971A96DC901A97813009F084C31B967C
:103B30003C90FAE03F12A5C0D80196966D917C9119
:103B40006D5F7F4F4AE050E0CE0101960E947632D1
:103B50004AE050E0BE016F5F7F4FC7010C960E94A4
:103B6000F439892B09F095C3F8018281938161E0D2
:103B700070E002960E941C14D80112968D919C91BF
:103B800040ED57E060E070E087960E941612F70162
:103B90004081B501C8010E94871CD12CC12C312C59
:103BA000A9C0D7018C91898311968C9111978A8332
:103BB0001296BC901297BB821396DC901397DC820E
:103BC00014968C9114978D8315968C9115978E83EE
:103BD00016968C9116978F8317968C9117978887D6
:103BE00018968C911897898719968C9119978A87BE
:103BF0001A968C911A978B871B96AC90AC8681E1B4
:103C0000F7013C96DE011D9601900D928A95E1F731
:103C10006FE873E0CE0108960E94C30F882339F045
:103C2000B1E0DB1204C0EAE0AE1609F441CFB2FE07
:103C300005C080EC8D0D823008F43ACF8C2DA8960B
:103C40000FB6F894DEBF0FBECDBFDF91CF911F91AD
:103C50000F91FF90EF90DF90CF90BF90AF909F902B
:103C60008F907F906F905F904F903F902F9008952E
:103C7000D801D9969C91F701818198133DCFC12C31
:103C8000DDCFB1E03B12B7C0DD2009F402C3D8019B
:103C900099968C9199978D1508F4FBC29C96CD90BE
:103CA000DC90C7010E94E00F3701BCE06B0E711C75
:103CB0004601E8E08E0E911C813009F059C0B30135
:103CC000C4010E941419C4010E94EE188F3F09F428
:103CD0008FC0682FC6010C960E94B60344E050E0E6
:103CE000BC01C3010E94C43281E0F80180A7C60173
:103CF0000E948918F701828185FF2CC0BE016F5D8B
:103D00007F4F8FA198A50E94C30F882319F1F1E07E
:103D10003F12D4C2C114D10409F4BEC2D801129614
:103D2000ED91FC9181A99EE0F701908392E093834D
:103D300012823286D6011B969C9193871486158633
:103D40008687A501B701C8010E94971AF6018285EE
:103D50008E7F8287D80112968D919C9142E350E02C
:103D600060E070E087960E941612CC24C39466CF60
:103D7000D70150968C9150971C969C911C979983D3
:103D80001D969C911D979A831E969C919B838C8374
:103D9000B301C4010E941419BE016F5F7F4FC401BB
:103DA0000E941419C4010E94EE188F3F09F12601E8
:103DB000BCE04B0E511C682FC2010E94B60344E0C8
:103DC00050E0BC01C3010E94C432C4010E94EE183D
:103DD0008F3F51F0682FC2010E94B60344E050E0CB
:103DE000BC01CE0101967ECFB301C4010E9414191B
:103DF00082E0382E7FCFF2E03F123AC0DD2009F496
:103E000048C2D80199968C9199978D1508F441C2B2
:103E10009C96CD90DC904601B8E08B0E911CB701CA
:103E2000645F7F4FC4010E941419782EC7010E945D
:103E3000E00F823081F4F70180899485998395851C
:103E40009A8396859B838C83BE016F5F7F4FC401ED
:103E50000E9414197822772009F44CCF81E0D80110
:103E600098968C93C6010E9489183324339442CFCC
:103E7000B3E03B1279C0DD2009F4FEC0F80191A542
:103E80009D1508F48ACE24A435A4D70111969C91DF
:103E9000119714962C9114972E8F15962C91159797
:103EA0002F8F16962C9128A34801B7E08B0E911CFA
:103EB0002AE1278320E1228720E22187818B9087D6
:103EC0003801E2E16E0E711C6301512C412CF8E0C7
:103ED0002F0E311C442DB101CE0101960E94D6183F
:103EE000CE0101960E94B40F8823D1F0539484E050
:103EF000FE013196D60101900D928A95E1F724E0FA
:103F0000C20ED11C84E058120BC0AE01425E5F4F5E
:103F1000B401C8010E94971A6301512C882321F033
:103F2000439493E04912D6CF84E0D6011D928A953E
:103F3000E9F75394852D880F880F99E0980F9830F2
:103F400070F4F8011782F80181858F7D8187AE01B9
:103F5000425E5F4FB401C8010E94971A1ECE865F71
:103F6000D80117968C93EFCFF4E03F128BC0D701A6
:103F700050962C91A701445F5F4F6D2DC8010E94A0
:103F8000921929833A834B835C836D837E838F836D
:103F9000E981FA81FEA3EDA322E0322EEF2B09F492
:103FA000B7C0D70111968C91119714969C911497D4
:103FB0009E8F15969C9115979F8F16969C9198A30E
:103FC0002801B7E04B0E511C9AE1F801978390E16C
:103FD000928790E2918792E0918B80871801F2E1BD
:103FE0002F0E311C6101712C612C1CA28B81861556
:103FF000170451F14CF1EC81FD81862D0995D60114
:104000008C934601B2E08B0E911C8DA19EA1860D72
:10401000971D0E948F17F6018183FCA1FF5FFCA30F
:10402000F83059F4AE01425E5F4FB201C8010E9400
:10403000971A882339F041011CA22FEF621A720AE5
:104040006401D4CF61011CA2D6011C9211961C926E
:104050008CA18A5F880F9FEF980F983078F4F80151
:104060001782F80181858F7D8187AE01425E5F4FA7
:10407000B201C8010E94971A312C4AC0D801179684
:104080008C93EFCFFEE03F122AC0D8019C96CD90D2
:10409000DC909D97F70121811296ED91FC9181A909
:1040A000D6011B969C91F801378230E1328736E0C9
:1040B000318B2087928B138A148A858B82E08187CB
:1040C000A501B801695F7F4FC8010E94971AD60108
:1040D0001A968C911A978E7F1A968C935ECDB5E0C6
:1040E0003B1219C0F801D6A6D70150962C91A70112
:1040F000445F5F4F6D2DC8010E949219F80127A7F8
:1041000030AB41AB52AB63AB74AB85AB3324339470
:10411000D12CC12CEFCDF6E03F1233C0D8019896D8
:104120008C9398979F962D913C91D0979A968D91CC
:104130009C919B9728173907F1F412968D919C91C9
:1041400070E060E002960E941C14D801ED91FC9191
:104150000480F581E02DC80109958FEFD8019E9666
:104160008C938AE0F701808382E0838382831286C6
:10417000A501B701F0CEF80184A595A50E94891884
:10418000ECCFF8E03F1239C0D8019E968C918D1586
:1041900019F0D12CC12C69CEF80187A590A9892BE3
:1041A000C1F3D7018C918B3008F48BE095EF792E19
:1041B000780E4701BCE08B0E911C64018C2D881990
:1041C000871538F7F6016180D801D496ED91FC91FE
:1041D000D6018C9109958F3F61F0F80167A570A910
:1041E000680F711D698241E050E0CE0101960E9486
:1041F000C432F2E0CF0ED11CE1CF29E0321249C027
:10420000D70111968C9194E1F801978390E1928700
:104210001186118A8087128A66A177A16D5F7F4F10
:104220004AE050E0C80142960E947632A501B801EA
:10423000695F7F4F90CE813149F5F4E0DF1619F0C8
:104240002AECD212AACC8AE0D7018C9382E0139692
:104250008C93139712961C9212971A961C92A50192
:10426000B701C8010E94971ABAECDB120BC088E1B3
:104270009CE00FB6F894A895809360000FBE9093D1
:104280006000FFCFC8010E94D31787CC823109F4A8
:1042900080CFD12CC12CACCD8AE0D7018C9382E0A9
:1042A00013968C93139712961C9212971A961C923F
:1042B000A501B701C8010E94971A4CCDB2E03B128C
:1042C00049CD8AE0F70180833382128280E88287B9
:1042D000EFCF0C9466390C9466390C9466390C94C3
:1042E00066390C946639CF93DF93EC010E945A0E25
:1042F000CE01DF91CF910C9466390C946639CF933F
:10430000DF93EC010E947E0ECE01DF91CF910C94E1
:1043100066390C9466390C9466390C9466393F9270
:104320004F925F926F927F928F929F92AF92BF92C5
:10433000CF92DF92EF92FF920F931F93CF93DF9371
:10434000CDB7DEB7C054D1090FB6F894DEBF0FBEAB
:10435000CDBF6C01DC011896ED91FC9102811381B7
:10436000D8015796ED91FC910680F781E02DC801A8
:1043700047960995F80192A381A3D6011896ED916D
:10438000FC9119970280F381E02D81A192A1D29630
:104390009C938E93D197D7968C91882309F4CCC1A6
:1043A00080E090E0A0ECBFE78D8B9E8BAF8BB88F49
:1043B0008D879E87AF87B88B89839A83AB83BC83B5
:1043C0009E01235F3F4FAE014B5E5F4FBE016F5FAB
:1043D0007F4FC6018E5A9F4F0E9433052D893E891B
:1043E0004F89588DF60162AD73AD84AD95AD0E94D5
:1043F00003354B015C012D853E854F855889F601BB
:10440000FE9660817181828193810E9403352B0128
:104410003C0129813A814B815C81F601EE5BFF4FC3
:1044200060817181828193810E94033569AF7AAF87
:104430008BAF9CAF20E030E040E251E4C501B40115
:104440000E9423376DAB7EAB8FAB98AF20E030E09E
:10445000A9010E94CE3620E030E040E05FE387FD16
:104460007EC36DA97EA98FA998AD0E9403350E94D5
:10447000E635F601EA5BFF4F7183608320E030E0B0
:1044800040E251E469AD7AAD8BAD9CAD0E9423371B
:104490006DAB7EAB8FAB98AF20E030E0A9010E94FE
:1044A000CE3620E030E040E05FE387FD5FC36DA9DA
:1044B0007EA98FA998AD0E9403350E94E635F601CA
:1044C000E85BFF4F71836083D601D8966D917C9134
:1044D000072E000C880B990B0E941E36E9ACFAAC33
:1044E0000BAD1CADA50194010E943F1320E030E00C
:1044F00040E251E40E9423376DAB7EAB8FAB98AFA7
:1045000020E030E0A9010E94CE3620E030E040E01B
:104510005FE387FD32C36DA97EA98FA998AD0E9484
:1045200003350E94E635F601E65BFF4F7183608339
:1045300020E030E040E251E4C301B2010E942337A1
:104540006DAB7EAB8FAB98AF20E030E0A9010E944D
:10455000CE3620E030E040E05FE387FD15C36DA973
:104560007EA98FA998AD0E9403350E94E635F60119
:10457000E45BFF4F71836083A5019401C501B40121
:104580000E94E037811107C3A3019201C301B20168
:104590000E94E0378111FFC220E030E048EC52E495
:1045A000C301B2010E9474350E94DB366DAB7EAB55
:1045B0008FAB98AF20E030E04DE851E4C501B40185
:1045C0000E94233769AF7AAF8BAF9CAF2DE33AE0FF
:1045D00043E753E4C501B4010E9403359B01AC01DC
:1045E00069AD7AAD8BAD9CAD0E94743569AF7AAF81
:1045F0008BAF9CAF9B01AC016DA97EA98FA998AD33
:104600000E9403352DE33AE043E753E40E94233749
:1046100021966CAF7DAF8EAF9FAF21972DA93EA99C
:104620004FA958AD60E070E08DE891E40E9402353A
:1046300029AD3AAD4BAD5CAD0E9402359B01AC019A
:1046400021966CAD7DAD8EAD9FAD21970E947435E6
:1046500020E030E040E251E40E9423370E94E6353A
:10466000F601E25BFF4F71836083A5019401C501F0
:10467000B4010E94E037811193C2A3019201C301EA
:10468000B2010E94E03781118BC229E23CE54DE87E
:1046900051E4C501B4010E9423376DAB7EAB8FABF3
:1046A00098AF20E030E843E753E4C501B4010E942D
:1046B00003359B01AC016DA97EA98FA998AD0E941D
:1046C00074359B01AC0164E578EF8DE290E40E94C3
:1046D000903721E835E943EC50E40E942337A301E9
:1046E00092010E9423372BE63FE140E951E40E940A
:1046F00023372B013C0123E333E948E853E4C501A8
:10470000B4010E94033524E138E045E051E40E9401
:1047100023379B01AC01C301B2010E94743520E034
:1047200030E048EC52E40E9423370E94ED35F60158
:10473000E05BFF4F71836083F601EA5BFF4F80818E
:104740009181F60194A783A7E45BFF4F808191815B
:10475000D6019E969C938E939D97329780819181EE
:10476000F60190AB87A74601F5E98F0E911CD401A5
:104770008C91882309F4CFC063E080E00E94950EFD
:1047800068E770E080E090E00E94810380E1F4013E
:10479000838360E181E00E94950E84E10E94121300
:1047A0008C0186E10E9412135C010F3F1007A9F4EF
:1047B000D40113961C9260E081E00E94950E68E798
:1047C00070E080E090E00E94810384E10E94121377
:1047D0008C0186E10E9412135C0160E080E00E947F
:1047E000950EF4018381882309F4DFC160E070E055
:1047F00088EC91E420E030E048EC52E40E9423375A
:1048000020E030E04CEC53E40E9474352B013C0175
:10481000B80190E080E00E941C366DAB7EAB8FABA0
:1048200098AFB50190E080E00E941C3669AF7AAF86
:104830008BAF9CAF25E83BEE41ED5FE30E94233751
:104840009B01AC016DA97EA98FA998AD0E9402358C
:10485000A30192010E947435B62E172F082FA92E9E
:104860002DE33AE047E15FE36DA97EA98FA998ADFA
:104870000E9423376DAB7EAB8FAB98AF26EF38E24B
:104880004CE55FE369AD7AAD8BAD9CAD0E942337FB
:104890009B01AC016DA97EA98FA998AD0E9402353C
:1048A000A30192010E9474353B017C019B01AC0184
:1048B0006B2D712F802F9A2D0E94CE36181624F062
:1048C000B62C172D0E2DAF2C20E030E0A9016B2D5A
:1048D000712F802F9A2D0E946F3587FD6BC120E0CC
:1048E0003FEF4FE757E46B2D712F802F9A2D0E94D9
:1048F000CE3618162CF4B12C1FEF0FE737E4A32E99
:104900006B2D712F802F9A2D0E94ED35D4011296B8
:104910007C936E931197F601EA56FF4F8081918147
:10492000F60194AB83AB83A594A56AE070E00E9486
:104930001A339B018C014AE0BE01635E7F4FC901BF
:104940000E947F3265EE71E0CE014D960E94113AD1
:10495000C80117FF03C09195819591094AE0BE01F6
:104960006E5C7F4F0E947F32BE016E5C7F4FCE0136
:104970004D960E94113AD6019D968D919C910AE028
:1049800010E0B8010E940633CB014AE0BE01645D2D
:104990007F4F0E947F32F60187A590A9B8010E943F
:1049A0000633CB014AE0BE016B5E7F4F0E947F322F
:1049B000D601D1968D919C9128EEE22E23E0F22E25
:1049C000B7010E940633CB014AE0BE01635F7F4F0F
:1049D0000E947F3265EE71E0CE010D960E94113A81
:1049E000F60181A992A9B7010E940633B8010E947D
:1049F0000633CB014AE0BE016E5C7F4F0E947F32DE
:104A0000BE016E5C7F4FCE010D960E94113AD60119
:104A1000D6968C91D6978F5F8F3008F0D0C0D696FF
:104A20008C93D6011896ED91FC9126812F5F2683F9
:104A30005601BEE0AB0EB11CF60133A8E4A8008518
:104A40001185D8011296ED91FC91D601D196FC907A
:104A5000D197D2964C91D2979F969C909F97D09643
:104A60008C90D0979D967C909D979E966C909E97EB
:104A70009B965C909B979C963C913F77478C81A13D
:104A800092A164E670E00E9406334616170611F004
:104A900008F03068822F68E20E94EC3282E29230A5
:104AA00009F084E093E1F601968790E7918B808B83
:104AB000308F2787518E628E738E848E958E468FAF
:104AC000F78EE0A231A282FF2CC18F7C8460808BA4
:104AD0004FE853E0B501C8010E94971AD601189615
:104AE000ED91FC91E480F58040E060E2C7010E9416
:104AF000E217182F40E061E2C7010E94E217212F60
:104B000030E0322F2227280F311DA4E6B0E00E94AA
:104B10005033F601658376838783B60187E993E096
:104B20000E94291081E0D601D5968C93C05CDF4F9E
:104B30000FB6F894DEBF0FBECDBFDF91CF911F91AE
:104B40000F91FF90EF90DF90CF90BF90AF909F902C
:104B50008F907F906F905F904F903F9008956DA9D8
:104B60007EA98FA998AD0E94023581CC6DA97EA93E
:104B70008FA998AD0E940235A0CC6DA97EA98FA9FE
:104B800098AD0E940235CDCC6DA97EA98FA998ADB4
:104B90000E940235EACC60E070E080EC9FE758CDDF
:104BA00060E070E080EC9FE7BACD60E070E080E804
:104BB0009FE320CEB12C10E000E0A12CA1CEF601A5
:104BC00016AA61E08AE00E94A9028CB58F7B8CBD99
:104BD000F894E6EEF4E08CE3DF011D928A95E9F7A4
:104BE00081E08093E50463EB71E0CE0101960E94C1
:104BF0001C3ABE01635E7F4FCE0101960E94113ABE
:104C000066EB71E0CE0101960E94113A4BE050E054
:104C1000BE016F5F7F4F86EE94E00E94233A69EBFE
:104C200071E0CE0101960E941C3ABE01645D7F4F87
:104C3000CE0101960E94113A6CEB71E0CE01019613
:104C40000E94113A4BE050E0BE016F5F7F4F82EF50
:104C500094E00E94233A6EEB71E0CE0101960E942F
:104C60001C3ABE016B5E7F4FCE0101960E94113A45
:104C700061EC71E0CE0101960E94113A4BE050E0E8
:104C8000BE016F5F7F4F8EEF94E00E94233A65EC88
:104C900071E0CE0101960E941C3ABE01635F7F4F16
:104CA000CE0101960E94113A6AEC71E0CE010196A4
:104CB0000E94113A4BE050E0BE016F5F7F4F86E1EA
:104CC00095E00E94233A4AE0BE016B5D7F4FF601FA
:104CD00083A994A90E947F326CEC71E0CE01019609
:104CE0000E941C3ABE016B5D7F4FCE0101960E946F
:104CF000113A6FEC71E0CE0101960E94113A4BE03F
:104D000050E0BE016F5F7F4F8AE095E00E94233A3A
:104D1000109215050E94041578948CB580648CBDA2
:104D200080CE912C812C312C3601F8E06F0E711C55
:104D3000260182E1480E511CA3E08A16910409F471
:104D400098C0482DB301CE010D960E94D618CE0111
:104D50000D960E94B40FF82E882309F45EC0E12C52
:104D60004E2DB301CE0101960E94D618BE016F5F91
:104D70007F4FCE010D960E94C30F811106C0E394B0
:104D8000B3E0EB12EDCFEE24EA94E81419040CF42E
:104D900044C01B821A821982BE016F5F7F4FF801E7
:104DA00086A197A10E944E14BE016F5F7F4FCE0176
:104DB0000D960E94C30F8823F1F1B201D801969697
:104DC0008D919C910E944E14F6018289858B838976
:104DD000868B8489878B6FE873E0C2010E94C30FC2
:104DE000882341F0D60150968C9150978F7D846036
:104DF00050968C93F601808985FF13C08F7D808B40
:104E0000D801ED91FC910680F781E02DB501C80134
:104E10000995F60180898062808BBFEF8B1A9B0A0F
:104E20008BCFD801ED91FC910680F781E02DB50183
:104E3000C8010995F2CFAE01435F5F4FB301CE01C8
:104E400001960E94561989819A810E948F17F60156
:104E5000908980FF0BC09061908BAE01435F5F4FE4
:104E6000B501C8010E94971A3F2CD7CF9F7E908B27
:104E7000F4CF311033CEF80164817581CE010196F3
:104E80000E94FC17AE014F5F5F4F24CE1F920F921E
:104E90000FB60F9211242F933F938F939F93AF934D
:104EA000BF9380916E0290916F02A0917002B091B9
:104EB000710230916D0226E0230F2D3758F50296CE
:104EC000A11DB11D20936D0280936E0290936F021D
:104ED000A0937002B093710280917202909173025C
:104EE000A0917402B09175020196A11DB11D80932D
:104EF000720290937302A0937402B0937502BF91F3
:104F0000AF919F918F913F912F910F900FBE0F9076
:104F10001F90189529E8230F0396A11DB11DD2CF2C
:104F20001F920F920FB60F9211242F933F934F931E
:104F30005F936F937F938F939F93AF93BF93EF9301
:104F4000FF93E0910201F09103010995FF91EF9128
:104F5000BF91AF919F918F917F916F915F914F9191
:104F60003F912F910F900FBE0F901F9018951F9299
:104F70000F920FB60F9211242F933F934F935F938D
:104F80006F937F938F939F93AF93BF93EF93FF9311
:104F9000E0910001F09101010995FF91EF91BF911E
:104FA000AF919F918F917F916F915F914F913F91C1
:104FB0002F910F900FBE0F901F9018951F920F9278
:104FC0000FB60F9211242F933F934F935F936F93DC
:104FD0007F938F939F93AF93BF93EF93FF9386EE4F
:104FE00092E00E944404FF91EF91BF91AF919F9195
:104FF0008F917F916F915F914F913F912F910F9082
:105000000FBE0F901F9018951F920F920FB60F9220
:1050100011242F938F939F93EF93FF93E091F602C8
:10502000F091F7028081E091FC02F091FD0282FD97
:105030001BC090818091FF028F5F8F7320910003CE
:10504000821741F0E091FF02F0E0EA51FD4F958FA9
:105050008093FF02FF91EF919F918F912F910F907D
:105060000FBE0F901F9018958081F4CF1F920F9262
:105070000FB60F9211242F933F934F935F936F932B
:105080007F938F939F93AF93BF93EF93FF93809101
:10509000B900887F803609F44AC0F0F5883209F4F7
:1050A000A7C018F5803109F49BC0B8F4882309F42F
:1050B000F9C0883009F494C0FF91EF91BF91AF918E
:1050C0009F918F917F916F915F914F913F912F9120
:1050D0000F900FBE0F901F901895883109F488C06B
:1050E000803251F78093BE0214C0803409F49DC011
:1050F00040F48033B9F38833F9F68093BE0285EC2F
:10510000B0C0803509F485C0883509F496C088346C
:1051100099F60E940F17D0CF883909F48CC038F562
:10512000883729F050F4883611F0803729F683E06B
:105130008093E0021092340257C0883809F47BC093
:10514000803919F0803809F0B7CF8091340280326D
:1051500008F071C0E091340281E08E0F8093340238
:105160008091BB00F0E0EC5EFD4F80833DC0803B52
:1051700039F0E0F4803A09F479C0883A09F09CCF1C
:1051800084E08093E0021092110210921002E091EC
:105190000E02F0910F0209958091100281110FC04B
:1051A00081E0809310021092EE0109C0803C09F466
:1051B000A6CF883C09F4A3CF883B09F07DCFE091CE
:1051C000110281E08E0F80931102F0E0E251FE4F58
:1051D00080818093BB00909111028091100229C0C0
:1051E0008091BB028093BB0085EC8093BC0064CFB0
:1051F0009091BD028091BC02981758F5E091BD02D4
:1052000081E08E0F8093BD02F0E0E656FD4F808175
:10521000E9CFE091BD0281E08E0F8093BD028091C5
:10522000BB00F0E0E656FD4F80839091BD02809177
:10523000BC029817C8F285E8D8CFE091BD0281E0A2
:105240008E0F8093BD028091BB00F0E0E656FD4FCB
:1052500080838091BF0281115CCF81E08093BA028C
:1052600084EA8093BC001092E00226CF85EC809304
:10527000BC001092E00280913402803230F4E09160
:105280003402F0E0EC5EFD4F10826091340270E079
:10529000E0911202F091130284E192E009951092DC
:1052A00034020ACF1092BE0234CF1F920F920FB673
:1052B0000F9211240F900FBE0F901F9018951F9200
:1052C0000F920FB60F9211242F933F934F935F933A
:1052D0006F937F938F939F93AF93BF93EF93FF93BE
:1052E000E2E9F3E084818F5F8483CF010E9484121E
:1052F000FF91EF91BF91AF919F918F917F916F91AE
:105300005F914F913F912F910F900FBE0F901F9083
:1053100018951F920F920FB60F9211242F933F935F
:105320004F935F936F937F938F939F93AF93BF93AD
:10533000EF93FF9387E993E00E948412FF91EF912E
:10534000BF91AF919F918F917F916F915F914F919D
:105350003F912F910F900FBE0F901F9018951F92A5
:105360000F920FB60F9211248F930FB6F894A89551
:1053700080916000886180936000109260000FBE91
:105380008F910F900FBE0F901F9018951F920F9244
:105390000FB60F9211242F933F934F935F936F9308
:1053A0007F938F939F93AF93BF93CF93EF93FF938D
:1053B00099B1C09139028091690230916602292F1A
:1053C000209523238923822B20916D00C927C22396
:1053D000C82390933902CC23C1F1C0FF05C0E091EE
:1053E0003A02F0913B020995C1FF05C0E0913C02F1
:1053F000F0913D020995C2FF05C0E0913E02F09197
:105400003F020995C3FF05C0E0914002F0914102BF
:105410000995C4FF05C0E0914202F091430209954D
:10542000C5FF05C0E0914402F09145020995C6FF11
:1054300005C0E0914602F09147020995C7FF05C0FB
:10544000E0914802F09149020995FF91EF91CF91C7
:10545000BF91AF919F918F917F916F915F914F918C
:105460003F912F910F900FBE0F901F9018951F9294
:105470000F920FB60F9211242F933F934F935F9388
:105480006F937F938F939F93AF93BF93CF93EF933C
:10549000FF9396B1C0914A0280916A0230916702EF
:1054A000292F209523238923822B20916C00C92743
:1054B000C223C82390934A02CC2351F1C0FF05C0F8
:1054C000E0914B02F0914C020995C1FF05C0E091BB
:1054D0004D02F0914E020995C2FF05C0E0914F02C6
:1054E000F09150020995C3FF05C0E0915102F0917F
:1054F00052020995C4FF05C0E0915302F091540295
:105500000995C5FF05C0E0915502F0915602099535
:10551000FF91EF91CF91BF91AF919F918F917F912B
:105520006F915F914F913F912F910F900FBE0F9010
:105530001F9018951F920F920FB60F9211242F9360
:105540003F934F935F936F937F938F939F93AF930B
:10555000BF93CF93EF93FF9393B1C0915902809182
:105560006B0230916802292F209523238923822BF7
:1055700020916B00C927C223C82390935902CC23E2
:1055800051F1C0FF05C0E0915A02F0915B0209950C
:10559000C1FF05C0E0915C02F0915D020995C2FF78
:1055A00005C0E0915E02F0915F020995C3FF05C05E
:1055B000E0916002F09161020995C4FF05C0E0919D
:1055C0006202F09163020995C5FF05C0E091640293
:1055D000F09165020995FF91EF91CF91BF91AF9145
:1055E0009F918F917F916F915F914F913F912F91FB
:1055F0000F900FBE0F901F9018959F92AF92BF9281
:10560000CF92DF92EF92FF920F931F93CF93DF938E
:10561000E6EEF2E01382128288EE93E0A0E0B0E0C2
:1056200084839583A683B78326E131E03183208389
:1056300025EC30E03587248724EC30E03787268757
:1056400020EC30E0318B208B21EC30E0338B228B4F
:1056500022EC30E0358B248B26EC30E0378B268B28
:10566000118E128E138E148EE3E8F3E013821282F1
:1056700084839583A683B78388E291E091838083B6
:10568000EFE8F3E0128211821082E7E9F3E0118281
:10569000108213821282E2E9F3E0118210821382F7
:1056A00012821482E5E6F5E001E010E01183008348
:1056B00013830283158304831783068385E0E82E12
:1056C000F12CF186E086138612861586148696E7FD
:1056D000C92ED12CD786C6868EE0A4E2B5E0019013
:1056E0000D928A95E1F7E2E2F5E012AA28E9A22EEE
:1056F00021E0B22EB182A08280E1E5E6F5E0A5E5E9
:10570000B5E001900D928A95E1F7E1EEF4E089E0D1
:10571000808387E0818386E0828383E083831482B1
:10572000E6EEF4E08CE3DF011D928A95E9F7E7E805
:10573000F4E0158214821782108611868EE891E0BB
:1057400093838283128A138A148A158A99249394E4
:10575000968A9682128E118E138E148E158E168E48
:1057600082E891E0908F878B178E10A212A211A26F
:1057700013A214A215A216A212A611A614A615A66B
:1057800016A688E791E090A787A317A693A611AA6B
:1057900015AA14AA17AA10AE11AE8EE691E093AB2B
:1057A00082AB12AE96AA88E083AF83EC94E00E94AD
:1057B000A60FC4EBD3E08AE491E0998388831B822F
:1057C0001A828EED93E09D838C831E828BEB93E097
:1057D0000E94A60F80E290E09DA38CA320E134E01C
:1057E0003FA32EA318A699A69BA78AA78FEF8EA7E3
:1057F00018AA1FA619AA1BAA1AAA1DAA1CAA18AE83
:105800001FAA1EAA86E591E0998388831092F70368
:105810001092F603E8EFF3E080818E7F8D7F808326
:105820001092F9031092FB031092FA031DAE1CAE06
:105830001EAE80E797E1A0E08093F3039093F4031A
:10584000A093F50380E491E09BAF8AAF8CEF93E0E7
:105850000E94A60F10921A041092190410921C04B0
:1058600010921B0410921E0410921D04109220042A
:1058700010921F041092220410922104909223048B
:105880008EE0809324041092250410923504109227
:105890003404109237041092360410923904109296
:1058A000380410923B0410923A0410923D04109276
:1058B0003C0410923F0410923E0410934304009362
:1058C000420410934504009344041093470400934A
:1058D00046041093490400934804F0924B04E0926C
:1058E0004A0484E090E090934D0480934C0410921D
:1058F0004F0410924E0410927204B0924104A09290
:10590000400410937404009373041093760400937E
:105910007504109378040093770410937A0400932D
:105920007904F0927C04E0927B0490937E0480934F
:105930007D041092800410927F04D0928204C09261
:10594000810410928304109285041092840480E1F3
:10595000809386048EEE93E09DA78CA782E691E06B
:1059600099838883EBE9F3E0138212821482158213
:1059700016821782A3EAB3E08C91887F81608860E9
:105980008C93118617861686108A118A128A138ABA
:105990008AE391E095878487F58BE48B88EA91E030
:1059A00091838083D08FC78B8CE291E0938782872D
:1059B000DF91CF911F910F91FF90EF90DF90CF90EB
:1059C000BF90AF909F900895CF93DF93CDB7DEB790
:1059D0002A970FB6F894DEBF0FBECDBF789484B57A
:1059E000826084BD84B5816084BD85B5826085BDDB
:1059F00085B5816085BD80916E00816080936E0069
:105A0000109281008091810082608093810080915A
:105A1000810081608093810080918000816080930B
:105A200080008091B10084608093B1008091B000CB
:105A300081608093B00080917A00846080937A00C6
:105A400080917A00826080937A0080917A008E7FC4
:105A500080937A0080917A00806880937A00109217
:105A6000C10061E08091E1040E94200361E0809127
:105A7000E2040E94200361E08091E3040E9420037D
:105A800060E08091E4040E94200361E08BE00E94CA
:105A9000200361E08DE00E94200361E08091E10439
:105AA0000E94A90260E08DE00E94A902E0EFF4E00C
:105AB00082E3DF011D928A95E9F781E08093E50496
:105AC0008BE0E2EDF1E0A6EEB4E001900D928A9554
:105AD000E1F74BE050E06DED71E082EF94E00E9461
