:100000000C949A020C94F81E0C94D11E0C94DB21D3
:100010000C9478210C9407210C94F0200C94C202CB
:100020000C94C2020C94A0200C94C2020C94C20244
:100030000C94C2020C94CA200C94C2020C94C2020A
:100040000C94871E0C94C2020C94451F0C941F1F25
:100050000C94C2020C9496200C94C2020C94C2021E
:100060000C94771F0C94C20207634236B79BD8A743
:100070001A39685618AEBAAB558C1D3CB7CC5763CD
:10008000BD6DEDFD753EF6177231BF000000803F7B
:1000900008000000BE922449123EABAAAA2ABECD97
:1000A000CCCC4C3E00000080BEABAAAAAA3E000009
:1000B0000000BF000000803F000000000008417801
:1000C000D3BB4387D1133D190E3CC3BD4282AD2B38
:1000D0003E68EC8276BED98FE1A93E4C80EFFFBE30
:1000E00001C4FF7F3F0000000000300030300030CE
:1000F0003030003030303000303030303000303090
:10010000303030300030303030303030002000209F
:100110002D20002000200020002000200020000DC5
:100120000A00746D42617474657279204572726F51
:100130007200746D4261747465727920566F6C74CC
:100140006167653A2000414854313120696E697415
:1001500020646F6E6500202F20004148543131200B
:10016000542F48202878313029203D200041485420
:1001700031312072656164206572726F7200542F94
:10018000482F4C202878313029203D20006D73679E
:10019000636E74202020203A20006D736720542F56
:1001A000482F4F2F4C202878313029203D200062E5
:1001B00061747465727920766F6C746167652078FC
:1001C00031303030203D20002A2050726573737525
:1001D0007265204F66667365742078313020202068
:1001E000203A20002A2048756D6964697479204F8F
:1001F000666673657420783130202020203A200014
:100200002A2054656D7065726174757265204F6641
:100210006673657420783130203A20007478506F0E
:100220007765723A20006C6F774261744C696D6932
:10023000743A2000436F6E666967204368616E6799
:1002400065643A204C69737430000D0A000D0A0091
:100250000D0A0028666C6F617429202F2000202F62
:1002600020004C4452206164632F525F6C64722FF3
:100270006C7578203D20004C44523A206461726BCA
:100280006E65737320286164633D3029000D0A0098
:1002900020726561643A200020657870656374653A
:1002A000643A20004572726F7220617420002D3E06
:1002B0002000007761697441636B3A20003C2D2077
:1002C0000000206C6F6E6772656C65617365640019
:1002D000206C6F6E6770726573736564002064656F
:1002E000626F756E6365002070726573736564007C
:1002F0002072656C656173656400424F4F544C4FCA
:10030000414445520048415645204441544100690A
:10031000676E6F726520002D3E2000524553455494
:10032000005061636B657420746F6F206269673A77
:100330002000435243204661696C656400436F6E40
:1003400066696720467265713A2030783231004222
:100350006174746572792073657420637269743A8C
:1003600020004261747465727920736574206C6F2B
:10037000773A2020000D0A00202D207265616479F3
:100380000043432056657273696F6E3A2000002E59
:100390000206030D04E905CA070C0B060D210E65C4
:1003A0000F6A10C811931203153417031818191681
:1003B0001B431E2F1F65207823E9242A251F2611A1
:1003C0003E033100526164696F20696E6974000DEB
:1003D0000A00496E69742053746F726167653A2030
:1003E000000A0B0C0512142021222324202D2000AA
:1003F000416464726573732053706163653A2000D1
:100400004C445220696E697420646F6E65000D0A59
:1004100000436C6F636B20535953434C4F434B0065
:1004200053657269616C3A200053656E736F722078
:10043000736574757020646F6E65000001020304BB
:10044000050607000102030405000102030405413B
:10045000736B53696E2B2B2076352E302E3320286C
:1004600041707220203620323032362032323A3417
:10047000353A3430290000000000240027002A000B
:1004800000000000250028002B00000000002300D1
:1004900026002900040404040404040402020202E5
:1004A0000202030303030303010204081020408037
:1004B00001020408102001020408102000000008B6
:1004C000000201000003040700000000000000001B
:1004D00000000000000000000214050500000000FC
:1004E00002010A01000000000000000000000000FE
:1004F0000000000000000000060305010101010AE0
:10050000060101010501050A0206020200000000C1
:100510000501080404040400010203F40201484236
:100520004148544C3131303100F402107001010067
:100530003E223E2911241FBECFEFD8E0DEBFCDBF43
:1005400011E0A0E0B1E0E0ECFDE502C005900D9205
:10055000AE3CB107D9F724E0AEECB1E001C01D928A
:10056000A037B207E1F712E0C9E9D2E004C0219751
:10057000FE010E94D629C839D107C9F70E94762307
:100580000C94D32E0C940000833081F028F4813039
:1005900099F08230A9F008958730A9F08830C9F029
:1005A0008430B1F4809180008F7D03C08091800001
:1005B0008F7780938000089584B58F7784BD0895E8
:1005C00084B58F7DFBCF8091B0008F778093B00092
:1005D00008958091B0008F7DF9CFCF93DF93282FBE
:1005E00030E0F901E454FB4F8491F901E855FB4FE9
:1005F000D491F901EC56FB4FC491CC23A1F08111A9
:100600000E94C402EC2FF0E0EE0FFF1FE657FB4FF5
:10061000A591B491EC91ED2381E090E009F480E0A4
:10062000DF91CF91089580E090E0FACF1F93CF93B0
:10063000DF93282F30E0F901E454FB4F8491F90156
:10064000E855FB4FD491F901EC56FB4FC491CC23F4
:10065000A9F0162F81110E94C402EC2FF0E0EE0FDA
:10066000FF1FE058FB4FA591B4918FB7F894EC9120
:10067000111108C0D095DE23DC938FBFDF91CF919D
:100680001F910895DE2BF8CFCF93DF9390E0FC010C
:10069000E855FB4F24918C569B4FFC018491882395
:1006A000C9F090E0880F991FFC01EA58FB4FA59113
:1006B000B491FC01E058FB4FC591D49161110DC07C
:1006C0009FB7F8948C91209582238C93888128235E
:1006D00028839FBFDF91CF910895623051F49FB777
:1006E000F8943C91822F809583238C93E8812E2B64
:1006F000EFCF8FB7F894EC912E2B2C938FBFEACFCE
:100700003FB7F8948091580290915902A0915A02F3
:10071000B0915B0226B5A89B05C02F3F19F001964A
:10072000A11DB11D3FBFBA2FA92F982F8827BC014B
:10073000CD01620F711D811D911D43E0660F771F72
:10074000881F991F4A95D1F708958F929F92AF9273
:10075000BF92CF92DF92EF92FF926B017C010E94D9
:1007600080034B015C01C114D104E104F104B9F030
:100770000E948003681979098A099B09683E7340C1
:100780008105910580F321E0C21AD108E108F10842
:1007900088EE880E83E0981EA11CB11CE4CFFF9068
:1007A000EF90DF90CF90BF90AF909F908F90089583
:1007B0008FEF0895633050F4FC018081918103969E
:1007C000F5E06F9F800D911D1124089590E080E069
:1007D00008950895AF92BF92CF92DF92EF92FF9269
:1007E0000F931F93CF93DF936C017B018B01040F59
:1007F000151FEB015E01AE18BF08C017D10759F0F5
:100800006991D601ED91FC910190F081E02DC60136
:100810000995892B79F7C501DF91CF911F910F9130
:10082000FF90EF90DF90CF90BF90AF900895FC01C4
:10083000538D448D252F30E0842F90E0821B930B45
:10084000541710F0CF96089501970895FC01918DEB
:10085000828D981761F0A28DAE0FBF2FB11D5D96EE
:100860008C91928D9F5F9F73928F90E008958FEF90
:100870009FEF0895FC01918D828D981731F0828D44
:10088000E80FF11D858D90E008958FEF9FEF08959B
:10089000FC01918D228D892F90E0805C9F4F821BFF
:1008A00091098F73992708958CEC92E00E94480477
:1008B00021E0892B09F420E0822F089580E090E068
:1008C000892B29F00E94540481110C940000089592
:1008D000FC01A48DA80FB92FB11DA35ABF4F2C91B5
:1008E000848D90E001968F739927848FA689B789AC
:1008F0002C93A089B1898C91837080648C93938DA3
:10090000848D981306C00288F389E02D80818F7D45
:1009100080830895EF92FF920F931F93CF93DF93FD
:10092000EC0181E0888F9B8D8C8D98131AC0E8892B
:10093000F989808185FF15C09FB7F894EE89FF89FA
:100940006083E889F98980818370806480839FBF98
:1009500081E090E0DF91CF911F910F91FF90EF9098
:100960000895F62E0B8D10E00F5F1F4F0F731127A8
:10097000E02E8C8D8E110CC00FB607FCFACFE889E3
:10098000F989808185FFF5CFCE010E946804F1CFFF
:10099000EB8DEC0FFD2FF11DE35AFF4FF0829FB757
:1009A000F8940B8FEA89FB8980818062CFCF0F9307
:1009B0001F93CF93DF938C01D0E0C0E0F801EC0FE0
:1009C000FD1F6491662341F08CEC92E00E948A0442
:1009D000892B11F02196F2CFCE01DF91CF911F919B
:1009E0000F910895CF93DF93EC01888D8823B9F0A0
:1009F000AA89BB89E889F9898C9185FD03C080812A
:100A000086FD0DC00FB607FCF7CF8C9185FFF2CFA6
:100A1000808185FFEDCFCE010E946804E9CFDF9190
:100A2000CF9108952091F801260F3327331F2132EB
:100A30003105ECF42091A202FC0190E080E024302A
:100A400069F082E00895A091F8012191AC014A5229
:100A50005E4FA40FB52FB11D2C930196861798F306
:100A60008091F801680F6093F80180E0089581E0BB
:100A700008951092A20281E08093A10210927C025C
:100A800061E082E10E94160361E083E10E941603A7
:100A9000E9EBF0E080818E7F808380818D7F808391
:100AA00080E28093B80085E48093BC000895CF93E2
:100AB000DF9391E09093D5018823B9F0C091B800FD
:100AC000D091BA008091BC008A7B8093BC0060E02A
:100AD00082E10E94160360E083E10E9416030E94F7
:100AE0003905D093BA00C093B800DF91CF91089533
:100AF0008F929F92AF92BF92CF92DF92EF92FF922E
:100B00000F931F93CF93DF93D091CB02D13208F094
:100B1000D7C0182FC091CA020E9480036B017C01CC
:100B20008091A20281116BC082E08093A202109397
:100B3000A1028FEF8093A00210929F02D0939E0299
:100B4000AAEAB2E0EEE7F2E080E0D81391C010929A
:100B50007D0280917D02CC0FC82BC0937D028091D5
:100B60007C02813009F088C010927C020E948003D0
:100B70006B017C0180917D028093BB008091A40277
:100B80009091A502A091A602B091A702892B8A2B71
:100B90008B2BA1F00E9480030091A4021091A5026A
:100BA0002091A6023091A7026C197D098E099F0938
:100BB000061717072807390708F442C08091BC00C0
:100BC00083FDD8CF85EC8093BC000E9480036B012D
:100BD0007C018091A202823009F450C08091A00271
:100BE0008F3F09F46FC08091A002803209F46CC07D
:100BF0008091A002803309F469C084E026C080910E
:100C0000A4029091A502A091A602B091A702892BFF
:100C10008A2B8B2B09F484CF0E9480038090A4023E
:100C20009090A502A090A602B090A7026C197D0931
:100C30008E099F0986169706A806B90608F070CF98
:100C40008091A3020E94570585E01092A90210929C
:100C5000CB021092A802DF91CF911F910F91FF90CC
:100C6000EF90DF90CF90BF90AF909F908F900895BE
:100C70009D9191938F5F69CF85EEA5CF8091A4025E
:100C80009091A502A091A602B091A702892B8A2B70
:100C90008B2B09F49ECF0E9480030091A402109137
:100CA000A5022091A6023091A7026C197D098E0938
:100CB0009F09061717072807390708F08ACFC0CF02
:100CC00081E0C3CF80E0C1CF82E0BFCF83E0BDCF62
:100CD000CF92DF92EF92FF920F931F93CF93C82F83
:100CE000813208F096C00E9480036B017C018091E4
:100CF000A202811169C081E08093A2028093A102C7
:100D00009FEF9093A00210929F029C0F90939E02DF
:100D100080937D0280917D02806780937D02809127
:100D20007C02813009F077C010927C020E9480031F
:100D30006B017C0180917D028093BB008091A402B5
:100D40009091A502A091A602B091A702892B8A2BAF
:100D50008B2BA1F00E9480030091A4021091A502A8
:100D60002091A6023091A7026C197D098E099F0976
:100D7000061717072807390708F447C08091BC00F9
:100D800083FDD8CF85EC8093BC000E9480036B016B
:100D90007C018091A202813009F43FC080919F02C2
:100DA0008C1710F4C0919F02AEE7B2E0ECE5F2E0E0
:100DB00080E08C1354C08C2FCF911F910F91FF9026
:100DC000EF90DF90CF9008958091A4029091A502BA
:100DD000A091A602B091A702892B8A2B8B2B09F434
:100DE00086CF0E9480030091A4021091A502209159
:100DF000A6023091A7026C197D098E099F0906177A
:100E000017072807390708F072CF8091A3020E94C4
:100E10005705C0E0D0CF85EEB6CF8091A402909167
:100E2000A502A091A602B091A702892B8A2B8B2B39
:100E300009F4AFCF0E9480030091A4021091A50293
:100E40002091A6023091A7026C197D098E099F0995
:100E5000061717072807390708F09BCFD6CF9D91B3
:100E600091938F5FA6CF089508950895E091D401DE
:100E70008091D301E81730F4F0E0E45AFD4F80810F
:100E800090E008958FEF9FEF08959091D4018091A5
:100E9000D3012FEF3FEF981748F4E92FF0E0E45A21
:100EA000FD4F208130E09F5F9093D401C9010895E8
:100EB0008091D3019091D401891B990B0895CF9211
:100EC000DF92EF92FF920F931F93CF93DF937C01FA
:100ED000CB018A012091A802222389F0EB016B014A
:100EE000C40ED51ECC15DD0569F06991D701ED91D1
:100EF000FC910190F081E02DC7010995F3CF642F9B
:100F00000E941205C801DF91CF911F910F91FF90B0
:100F1000EF90DF90CF900895CF93DF931F92CDB7DE
:100F2000DEB769832091A8022223F9F02091CB0239
:100F3000203258F021E030E0FC013383228390E03E
:100F400080E00F90DF91CF9108958091A902E82F62
:100F5000F0E0E655FD4F998190838F5F8093A90261
:100F60008093CB0281E090E0ECCF61E0CE0101966E
:100F70000E941205F7CFCF93C62F91E09093A8025D
:100F800098E39093CA021092A9021092CB02682FA4
:100F900089E693E00E948C076C2F89E693E00E941B
:100FA0008C0760E089E693E00E948C0781E0CF9196
:100FB0000C94780590E080E008954115510529F4DE
:100FC000EAE7F0E080818F7780836A307105B9F0BD
:100FD000CB01880F991F880F991F80726770686016
:100FE000682B88E10FB6F894A895809360000FBE37
:100FF00060936000E0E6F0E0808180648083232BD2
:10100000D9F483B7817F846083BFF89483B781600C
:1010100083BF85B7806685BF8F7D85BF78948895AF
:1010200083B78E7F83BF7894452B29F4EAE7F0E0FD
:10103000808180688083089583B7817F846083BFC7
:10104000F89483B7816083BF7894889583B78E7F47
:1010500083BF7894E9CFFC018289938960E0911184
:1010600001C061E00C94160361E08AE00C94160361
:101070008EBD0DB407FEFDCF8EB508958CE00E94A5
:10108000ED028111FBCF089560E08AE00C94160315
:10109000CF93C82F0E9444080E943E088C2F0E94C4
:1010A0003808C82F0E9434088C2FCF91089586E30A
:1010B0000E9448088DE30E9448088AE30C9448087F
:1010C000CF93DF93D82FC62F0E9444080E943E087A
:1010D0008D2F8C2B0E94380880E00E943808C82F82
:1010E0000E9434088C2FDF91CF910895EFE6F0E055
:1010F00080818160808308958B3030F4E82FF0E0A8
:10110000EF51FC4F849108958FEF0895FC011086F4
:1011100008950895813011F08FEF089580E00895CB
:10112000882311F08FEF089581E00895E8E1F5E05C
:10113000E4918E1761F0E9E1F5E0E4918E1749F052
:10114000EAE1F5E0E4918E1731F08FEF089580E049
:10115000089581E0089582E00895833030F4E82F07
:10116000F0E0E85EFA4F849108958FEF0895FC0156
:101170008289938961E0911101C060E00C941603AB
:101180001F93CF93DF93FC01238520FF11C0162FFF
:10119000EC010E9444080E943E080E94340811118C
:1011A0000E94570884E30E9448088B858E7F8B87B6
:1011B000DF91CF911F9108950895E0911D02F09164
:1011C0001E02838581FD03C083858C60838708951B
:1011D0008CEC92E00E94F2048091C00085FD06C074
:1011E0008091C00080648093C000F6CF8091C000E1
:1011F00086FFFCCF08950895089580E0089508952E
:101200000F931F93CF93DF9326E531E0FC013183E9
:1012100020838C01065C1F4F79F0EC01C858DF4F2A
:101220000C171D0749F0EE97E881F9810280F381E0
:10123000E02DCE010995F4CFDF91CF911F910F9151
:101240000895089508950C94D7040E9423098DE40D
:1012500092E00C9423090F931F93CF938C01C62F18
:101260008DED92E06430A1F058F480EF92E06230AE
:1012700079F087EE92E0633059F081EC92E008C09B
:1012800080ED92E0653021F082EC92E06630A9F7C3
:101290000E942509C770F8018085887FC82BC08708
:1012A000CF911F910F91089522E631E0FC01318327
:1012B00020830C9400090895982FE1EEF3E080E07C
:1012C0002491921729F08F5F31968B30C9F78FEFF9
:1012D00008950C945C091F93CF93DF93EC016C830A
:1012E0004D831092D4011092D3011092A902109252
:1012F000CB020E94390583E397E09093F701809336
:10130000F60184E397E09093FB018093FA0168E291
:1013100070E080E090E00E94A50311E01093A80225
:1013200088E38093CA026AEB89E693E00E948C0707
:1013300081E00E94780564E170E080E090E00E9426
:10134000A50368E081EE0E94BB076AE070E080E0E0
:1013500090E00E94A5031E8386E491E0DF91CF9187
:101360001F910C9425090895862728E0BC017695E5
:101370006795AC014170552780FF02C041E050EAFB
:10138000CB0184279527215089F70895FC0110820D
:10139000118212821382168215821482118610869F
:1013A0001782128613860895FC018081811109C07D
:1013B0008181811106C081E09281911103C080E09A
:1013C000089581E00895DC01FB019C9180819813D0
:1013D0000BC011969C9111978181981305C081E0F3
:1013E00012962C919281291380E00895FC0133819B
:1013F000FB012381321302C00C94E30980E00895BD
:10140000CF93DF9300D000D0CDB7DEB7FC01808949
:101410009485998395859A8396859B838C8388236D
:1014200089F0BF01645F7F4FCE0101960E94F609EB
:10143000811108C082E00F900F900F900F90DF9104
:10144000CF91089581E0F7CF2FB7F894FC01808108
:1014500091812FBF0895FF920F931F93CF93DF9336
:10146000EC018B01FFB6F8940E94240A9C019FB7FF
:10147000F894F801318320839FBF8FB7F8941983C4
:1014800008838FBFFFBEDF91CF911F910F91FF9017
:1014900008956F927F928F92DF92EF92FF920F9357
:1014A0001F93CF93DF937B0122E0E20EF11CDB015F
:1014B00015962D913D914C91232B242B09F44DC071
:1014C000EB01DFB6F8942C8122602C838C010E9402
:1014D000240A009709F43EC0FC013297A1F0658010
:1014E000768087802D813E814F81CF0102966216E2
:1014F0007306840650F42619370948092D833E8364
:101500004F838C01E4CF90E080E02FB7F8949B8369
:101510008A832FBF8FB7F894D801ED92FC928FBFCA
:10152000309761F085819681A7812D813E814F8121
:10153000821B930BA40B85839683A783DFBEDF9169
:10154000CF911F910F91FF90EF90DF908F907F9040
:101550006F900895F0E0E0E0D8CFB7010296DF91F8
:10156000CF911F910F91FF90EF90DF908F907F9020
:101570006F900C942B0A1F93CF93DF93EC01FB0128
:101580002885922F9770943079F040F4923051F082
:10159000933039F1DF91CF911F910895953009F182
:1015A0009630C1F711E012C023FD21C02A853B858A
:1015B0002550310913E02115310541F040E02D831C
:1015C0003E834F83BE01CF010E94490AE881F98121
:1015D0000680F781E02D612FCE01DF91CF911F9121
:1015E000099423FDD7CF2A853B8515E0E4CF25E07C
:1015F00030E012E0E3CF0F931F93CF93DF93EC0122
:101600008B01E88981E08E0F888BEC0FFD2FF11D97
:10161000228530E0A4E6B0E00E94B5292AE030E05F
:1016200040E050E00E9493292D833E834F83BE010A
:10163000C8010E94490A88898170DF91CF911F916A
:101640000F9108950F931F93CF93DF93EC018B01BC
:10165000E881F9810680F781E02D09959B878A87CB
:101660008C859D85AE858D839E83AF83BE01C80129
:10167000DF91CF911F910F910C94490AEF92FF9245
:101680000F931F93CF93DF93EC01FFB6F8940E9462
:10169000240A8C01892B71F0EFB6F894CE010E94D8
:1016A000240A0E94240A9C019FB7F8943983288356
:1016B0009FBFEFBEFFBEC801DF91CF911F910F9179
:1016C000FF90EF900895BF92CF92DF92EF92FF923A
:1016D0000F931F93CF93DF93EC01FFB6F8948C81A7
:1016E0008D7F8C838DE793E00E94240A0097C9F1D7
:1016F0009C01225031098DE793E02115310589F1D4
:1017000089010E5F1F4FC217D30709F50E943E0BD8
:10171000C8010E94240A009779F0FC01329761F019
:1017200085819681A7812D813E814F81820F931FF4
:10173000A41F85839683A783FFBEDF91CF911F915E
:101740000F91FF90EF90DF90CF90BF900895C80168
:101750000E94240A009729F09C0122503109C801F7
:10176000CCCF6E0182E0C80ED11CEFB6F894BFB6A4
:10177000F8948FE793E00E94240AEC012FE733E00E
:10178000209779F010E000E0CC16DD0609F489011D
:10179000CE010E94240A9E010115110521F4EC01DD
:1017A000EFCF10E000E0BFBE0115110511F4EFBE50
:1017B000C3CFC8010E943E0BFACF0F931F93CF9364
:1017C000DF93FC01C085D18589850E94ED02988553
:1017D00093FB002700F910E080171106C1F180FB90
:1017E00093F99887892F8770292F287093FD02C05D
:1017F000813069F5182F833019F1853009F1813076
:1018000079F414E0CE010E94630B85E090E0A0E043
:101810008D839E83AF83BE018DE793E00E94490ACA
:1018200088858770811799F0E881F9810680F781B2
:10183000E02D612FCE01DF91CF911F910F9109947F
:10184000222371F312E08330E9F216E0DBCFDF915F
:10185000CF911F910F9108958DE893E00E94630B43
:101860006DE873E08DE793E00C94490A8F929F92A4
:10187000AF92BF92CF92DF92EF92FF92CF93DF931E
:10188000EC014A015B018DE793E00E94240A009776
:10189000B9F481E08887CE010E94630B8D829E821D
:1018A000AF82BE018DE793E0DF91CF91FF90EF9083
:1018B000DF90CF90BF90AF909F908F900C94490A8B
:1018C0000297C12CD12C7601009719F3FC012581D8
:1018D00036814781642FA90170E0C40ED51EE61E33
:1018E000F71EC817D90739F002960E94240A0097FC
:1018F00081F20297E9CFC814D904EA04FB0448F244
:10190000DF91CF91FF90EF90DF90CF90BF90AF909D
:101910009F908F9008958FE793E00E943E0BFC010B
:10192000009781F0029771F022812D7F2283DC01E4
:10193000ED91FC910190F081E02D6DE773E0099548
:1019400081E0089580E00895CF92DF92FF920F9397
:101950001F93CF93DF938C01FFB6F8940E94240A63
:10196000009769F1EC01229751F18D819E81AF8141
:101970000197A1098D839E83AF83680182E0C80E21
:10198000D11C8D819E81AF81892B8A2BC1F4C80126
:101990000E943E0B8C8180FF1CC08D7F8C83E88170
:1019A000F9810190F081E02DB801CE010995C801BF
:1019B0000E94240A009719F0EC01229711F7FFBE4C
:1019C000C801DF91CF911F910F91FF90DF90CF90D1
:1019D0000895BE016E5F7F4FC6010E942B0AE7CFBC
:1019E0008F929F92AF92BF920F931F93CF93DF93EB
:1019F000CDB7DEB7A1970FB6F894DEBF0FBECDBF4F
:101A000019A2423008F44AE08E010F5D1F4F842E68
:101A1000912CB12CA12CA50194010E949329E62FB1
:101A2000B901CA01EA3044F5E05DD801EE938D01B9
:101A3000232B242B252B79F790E080E0109769F079
:101A4000FD0101900020E9F73197AF014A1B5B0BC4
:101A5000BD018CEC92E00E94EA03A1960FB6F894C7
:101A6000DEBF0FBECDBFDF91CF911F910F91BF9011
:101A7000AF909F908F900895E95CD7CFCF92DF927F
:101A8000EF92FF92CF93DF9397FF1BC06B017C0116
:101A90006DE28CEC92E00E948A04EC0166277727C5
:101AA000CB016C197D098E099F094AE00E94F00C58
:101AB0008C0F9D1FDF91CF91FF90EF90DF90CF9023
:101AC00008954AE0DF91CF91FF90EF90DF90CF90A3
:101AD0000C94F00C682F880F770B880B990B0E94E1
:101AE0003E0D8DE892E00C942309CF93C82F8031EE
:101AF00028F460E38CEC92E00E948A046C2F70E082
:101B000090E080E040E1CF910C94F00C682F70E001
:101B100090E080E04AE00E94F00C8AE492E00C94AD
:101B20002309BC0190E080E04AE00C94F00C0E9494
:101B3000910D80E592E00C942309CF92DF92EF9211
:101B4000FF9280917C00807380937C0080917C0068
:101B5000806480937C0080917C008E6080937C0008
:101B600062E370E080E090E00E94A50324E030E0B2
:101B700090E080E060E170E040917A004064409342
:101B80007A0042E350917A0056FF0CC0FB01319776
:101B9000F1F74150B9F782E291E00E94230990E009
:101BA00080E02DC040917800509179005370840FEF
:101BB000951F2150310901F79C01369527953695DF
:101BC0002795837099270297F8F02F5F3F4F50E0D9
:101BD00040E060E070E381E190E00E9493296901B8
:101BE0007A0182E391E00E9423094AE0C701B6012D
:101BF0000E94F00C8FE191E00E942309C601FF9042
:101C0000EF90DF90CF9008952115310501F7C3CFF4
:101C1000EF92FF920F931F93CF93DF93EC01888194
:101C20000E94750D8DE191E00E94230989810E9437
:101C3000750D8BE191E00E9423098A810E94750D48
:101C400089E191E00E9423098B810E94750D87E153
:101C500091E00E9423098C810E94750D8D810E9464
:101C6000750D8E810E94750D85E191E00E9423091A
:101C70008F810E94750D88850E94750D89850E944F
:101C8000750D83E191E00E942309088109502A968D
:101C90007E0110E0C7018C1B9D0B8017910754F447
:101CA000F70181917F010E94750D8DE091E00E9406
:101CB0002309F0CF8FE091E00E9423092FB7F89419
:101CC0006091540270915502809156029091570292
:101CD0002FBF4AE00E94F00C8FE191E0DF91CF919D
:101CE0001F910F91FF90EF900C942309CF92DF92F8
:101CF000EF92FF926B017C0180E1C816D104E104F0
:101D0000F10468F485E091E00E94D70440E1C70146
:101D1000B601FF90EF90DF90CF900C94F00C8FEF16
:101D2000C816D104E104F10409F018F48EEF90E034
:101D3000EBCFC11480E1D806E104F10418F488EF78
:101D400090E0E2CFC114D10481E0E806F10418F478
:101D500083EF90E0D9CFC114D10480E1E806F1040B
:101D600018F48FEE90E0D0CFC114D104E10481E0EB
:101D7000F80618F48CEE90E0C7CFC114D104E1044A
:101D800080E1F80618F68AEE90E0BECFFC010190E3
:101D90000020E9F73197AF01481B590BBC018CECCF
:101DA00092E00C94EA031F93CF93DF931F92CDB779
:101DB000DEB7162F0E945C098F3F99F06091C40333
:101DC0007091C503680F711D198341E050E0CE0189
:101DD00001960E945B2981E00F90DF91CF911F91C6
:101DE000089580E0F9CFEF92FF920F931F93CF9366
:101DF000DF931F92CDB7DEB78C017B01E80EF91E91
:101E0000198241E050E0B801CE0101960E945B29A1
:101E10000F5F1F4FE016F10699F781E00F90DF91F9
:101E2000CF911F910F91FF90EF900895CF93DF9383
:101E30001F92CDB7DEB7E8E1F5E0E4916E17E9F067
:101E4000E9E1F5E0E4916E17D1F0EAE1F5E0E49123
:101E50006E1317C062E0FC0180819181680F792FB9
:101E6000711D498341E050E0CE0101960E945B293B
:101E700081E00F90DF91CF91089560E0ECCF61E0B9
:101E8000EACF80E0F6CF0F931F93CF93DF93EC015F
:101E90008B010E94630BCE010E94B708B80183E05A
:101EA000660F771F8A95E1F760537B4F48E050E05B
:101EB000CE0108960E9442298885882389F0188AD5
:101EC000198A6DE773E0CE010E94FB0A8C89882392
:101ED00039F0CE01DF91CF911F910F910C942B0817
:101EE000DF91CF911F910F9108950F931F93CF937F
:101EF000DF9300D01F92CDB7DEB78B0143E050E0F7
:101F0000BC01CE0101960E9442299A818B812981D0
:101F1000F8012083918382830F900F900F90DF91BF
:101F2000CF911F910F9108951F93CF93DF93EC01F1
:101F30001FB7F89498898885981778F4CE010E9485
:101F4000FB0A1FBF8823D9F08C898823F1F0CE01CA
:101F5000DF91CF911F910C942B08188A99859923B2
:101F600069F389898F5F898B891740F348E050E0D6
:101F700060ED74E0CE0108960E9442291FBFCE0199
:101F8000DF91CF911F910C94B708DF91CF911F91F2
:101F9000089585ED8093BC008091A4029091A502E4
:101FA000A091A602B091A7020796A11DB11D23E042
:101FB000B695A795979587952A95D1F72091BC005E
:101FC00024FD03C01092A20208954091A4025091F2
:101FD000A5026091A6027091A702452B462B472BC4
:101FE00069F30097A105B10541F025E12A95F1F7C4
:101FF00000000197A109B109E1CF8091A3020C94DF
:102000005705CF93CFEF86E30E944808C1508077F1
:1020100031F08AE18A95F1F700C0C111F4CF8AE36B
:102020000E94480889E3CF910C944808EF92FF92F0
:102030000F931F93CF93DF937C01D62FC42F122FC2
:102040000E9444080E943E088D2F0E9438088C2F61
:102050000E9438080E94340860E88D2F0E946008B2
:10206000082F81E0C01779F01123A1F02FEF210F85
:102070004C2F6D2FC7010E941610EFECF7E031973F
:10208000F1F700C00000DF91CF911F910F91FF90F9
:10209000EF90089584EA92E00E9423098D2F0E9418
:1020A000750D88E992E00E9423098C2F0E94750D1E
:1020B00080E992E00E942309802F0E94750D85E738
:1020C00093E00E94230980E0DECFCF93DF931F923D
:1020D000CDB7DEB7198241E050E0BC01CE010196D8
:1020E0000E944B2989810F90DF91CF910895DC01E7
:1020F000E8E1F5E0E4916E1769F0E9E1F5E0E491DB
:102100006E1781F0EAE1F5E0E49182E06E1719F0D4
:1021100080E0089580E02D913C91820F932F911DD6
:102120000C94651081E0F7CFFF920F931F93CF932C
:10213000DF9300D000D0CDB7DEB78C0180EA91E00C
:102140000E94C60E8EE094E00E94230980E092E097
:102150000E942309F801848595859A83898361E02B
:10216000CE0101960E9477100E946A0D84EE91E0E4
:102170000E942309F801848595859A83898362E00A
:10218000CE0101960E9477100E946A0D88EC91E0C2
:102190000E942309F801848595859A83898363E0E9
:1021A000CE0101960E9477100E946A0DF801848585
:1021B00095859C838B8362E0CE0103960E94771005
:1021C000F82EF801848595859A83898361E0CE0194
:1021D00001960E9477104F2D682FC801C5960E9466
:1021E0006B090F900F900F900F90DF91CF911F917F
:1021F0000F91FF900895CF93DF93EC0188E10E9447
:102200005C098F3F59F028813981820F932F911DEE
:102210000E9465108170DF91CF91089580E0FBCF1F
:102220008A960E94FB1081110DC08BE193E00E9401
:10223000250964E070E090E080E00E94F30EF0E099
:10224000E0E0099408950F931F93CF938C01862F9C
:10225000C42F0E945C098F3F59F0F8012081318121
:10226000820F932F911DCF911F910F910C946510A8
:102270008C2FCF911F910F910895EF92FF920F93A2
:102280001F93CF93DF93EC018B0140E06CE0C8011A
:102290000E942311F82E40E06BE0C8010E94231138
:1022A000E82E40E06AE0C8010E9423118883E98299
:1022B000FA82CE01DF91CF911F910F91FF90EF90A5
:1022C0000895BF92CF92DF92EF92FF920F931F93E8
:1022D000CF93DF93CDB7DEB728970FB6F894DEBF64
:1022E0000FBECDBF7C0184E392E00E9425098701E7
:1022F000065D1F4F40E062E1C8010E942311B82E25
:1023000086E292E00E9423098B2D0E94860DD70160
:102310001296CD90DC90F601B78E82E693E00E9493
:102320002309D6015F968C910E94860D88E0EAE031
:10233000F1E0DE01119601900D928A95E1F740E0FF
:1023400064E2C8010E942311873060F540E064E236
:10235000C8010E942311182FE1E0F0E0EC0FFD1FEF
:10236000E10FF11DD70112968D919C9123E04081E0
:102370006EE3C0960E9416108CE192E00E94230941
:10238000812F28960FB6F894DEBF0FBECDBFDF9128
:10239000CF911F910F91FF90EF90DF90CF90BF9062
:1023A0000C94860D17E0D8CFCF93DF93EC01CB01CF
:1023B0001A82198218821B82642F04960E94DA0303
:1023C000009731F044E050E0BC01CE010E944B295F
:1023D000CE01DF91CF910895EF92FF921F93CF939B
:1023E000DF9300D000D0CDB7DEB77C0110E0412FE5
:1023F000B701CE0101960E94D411CE0101960E9430
:10240000D409882321F01F5F133089F71FEF812F34
:102410000F900F900F900F90DF91CF911F91FF9031
:10242000EF900895AF92BF92CF92DF92EF92FF921A
:102430001F93CF93DF9300D000D0CDB7DEB77C01E0
:102440006B0110E05C0184E0A80EB11C412FB701C4
:10245000CE0101960E94D411B601CE0101960E94D0
:10246000F609882379F01B821A8219821C82612F57
:10247000C5010E94DA0344E050E0BC01CE010196A0
:102480000E945B291F5F133009F781E00F900F90C6
:102490000F900F90DF91CF911F91FF90EF90DF9001
:1024A000CF90BF90AF900895AF92BF92CF92DF923E
:1024B000EF92FF921F93CF93DF9300D000D0CDB760
:1024C000DEB77C016B015A0110E0412FB601CE014D
:1024D00001960E94D411B501CE0101960E94F60921
:1024E0008823C1F0612FC60104960E94DA03049686
:1024F000F70191838083C7010F900F900F900F9089
:10250000DF91CF911F91FF90EF90DF90CF90BF9020
:10251000AF9008951F5F1330C1F690E080E0E8CFE0
:10252000CF93DF9300D000D000D01F92CDB7DEB79D
:10253000FC0121111FC082A593A59A8389838BE09A
:102540008B838CE798E09D838C8389E699E09F8359
:102550008E8329813A814B815C816D817E818F815F
:1025600090E027960FB6F894DEBF0FBECDBFDF9187
:10257000CF910895662331F181A5861750F104A407
:10258000F5A5E02D213069F44485558586E998E06C
:102590002DEA38E063E05A8349836B833D832C83C3
:1025A000D6CF2430B1F4BF01685F7F4FCE010196D2
:1025B0000E94541249815A818AE898E020E938E063
:1025C00061E0E9CF90E080E030E020E050E040E0E2
:1025D000E2CF90E080E030E020E060E0F7CFAF9223
:1025E000BF92CF92DF92EF92FF920F931F93CF9300
:1025F000DF93EC017B018B858B7F8B878E01035FE3
:102600001F4F60EC8BE30E94600818160CF041C06D
:1026100060E88FE30E946008D82E4CE1481708F468
:102620005FC00E9444080E943E088FEF0E94380855
:10263000C02E58018A2D8C198D1538F480E00E9427
:102640003808F50181935F01F5CF0E94340860E8F6
:102650008FE30E946008282F30E0082E000C990BB1
:1026600088279170A901481B590BCA0157FD019693
:1026700095958795919581959109865B898360E809
:102680008FE30E94600887FD05C082E393E00E940B
:102690002509D12C0E94570884E30E944808BB24D6
:1026A000BA94BD0CDD2009F446C057E05B1500F17B
:1026B0001C864C858D8596E798279D8721E04150A3
:1026C000550B622F70E0F801E60FF71F9081641739
:1026D000750784F48452892780832F5F892FF1CF77
:1026E00081E293E00E9423098D2D0E94860DD1CFB7
:1026F000DC86DFCF8E85892780834D2D50E0B801A1
:10270000C70101960E94CA2E87E08B15A0F0F70141
:1027100010821C8660E0CE010E94C008F701808113
:10272000DF91CF911F910F91FF90EF90DF90CF90AD
:10273000BF90AF900895F701D082EBCF2F923F92D8
:102740004F925F926F927F928F929F92AF92BF92C1
:10275000CF92DF92EF92FF920F931F93CF93DF936D
:10276000CDB7DEB7A3970FB6F894DEBF0FBECDBFCF
:102770005C018B01FA018081DB0117968C9317971E
:10278000818118968C931897828119968C9365E7AE
:1027900073E0CA010E94E309882329F0F8018281CD
:1027A0008F7D84608283B8016C5F7F4FD5019696E0
:1027B0008D919C910E94750FF801828180688283BF
:1027C00046E064E1D50114968D919C910E942311FD
:1027D000C82E811102C0CC24C394F501E480F58099
:1027E00085E00E945C098F3F09F461C0D7012D91FB
:1027F0003C91820F932F911D0E946510782E729448
:102800007694769423E0722241F0F50182819381DF
:1028100062E070E002960E94430FC80101969BA3FC
:102820008AA39AE0492E512C612C180197E0290EB9
:10283000311CD5011296ED90FC90F701F096FF8FB8
:10284000EE8FD80112968C91807188A34701BDE369
:102850008B0E911CF801408150E06AA17BA1C4015C
:102860000E94CA2ED8018C919FEF980F983008F0E3
:1028700047C0F70114AEF70124AD85ADF6E78F2709
:10288000D701DD968C93DD97DE969C9161E0215017
:10289000330B462F50E0F401E40FF51F708142170F
:1028A000530794F58452872780836F5FF2CF772494
:1028B0007394ABCFC110BDCF772041F0F501828179
:1028C000938164E070E002960E94430F8D2DA396E1
:1028D0000FB6F894DEBF0FBECDBFDF91CF911F9131
:1028E0000F91FF90EF90DF90CF90BF90AF909F90AF
:1028F0008F907F906F905F904F903F902F900895B2
:10290000D701DC968C93B7CF892F87278083F70177
:10291000F4ADF9A3B7016E5C7F4FD701DA96DC9076
:10292000DA97DD2039F0EFECF7E03197F1F700C0EE
:102930000000F3CFD7964D925D926C92D997E1E06B
:10294000DA96EC938DE793E00E94490A61E08E8D60
:102950009F8D0E94C008E89889EE93E09093010152
:1029600080930001D701DB968C91DB978260DB9628
:102970008C9386E30E9448088BE30E94480885E315
:102980000E94480860EC85E30E946008833139F0BA
:10299000E7ECF0E03197F1F700C00000F3CF8FE1F2
:1029A0009EE40197F1F700C0000098A1992349F037
:1029B000AFE7BBE8E8E0A150B040E040E1F700C07D
:1029C00000000E9444080E943E088FE30E943808DD
:1029D00089A10E9438080E9434080E9444080E947D
:1029E0003E088FE70E94380888A28E8E9F8E8E8DBB
:1029F000F8A18F1B29A1821740F4AE8DBF8D8D9158
:102A0000BF8FAE8F0E943808F2CF0E94340860EC6E
:102A100085E30E9460088D3039F0EFE8F1E03197EE
:102A2000F1F700C00000F3CFD701DB968C91DB9764
:102A30008D7FDB968C93EDEDF8E0F0930101E09350
:102A40000001809169008C7F826080936900E89A20
:102A50008DEB92E00E942309C8010E94080ED80164
:102A600012968C9185FF2BC0C1010E94D409882346
:102A700031F1CA94CE0101960E94C6098CE3F82E6A
:102A8000F50182819381DC01DB962C9122FD1CC033
:102A9000EFE1FEE43197F1F700C00000FA94F11085
:102AA000EFCF83EB92E00E9423098D2D0E94750DDC
:102AB00082EB92E00E942509DD2009F4FBCE711023
:102AC0003FC0DD24D39402CFBE016F5F7F4FC0961D
:102AD0000E94EF128823E1F28EEA92E00E9423091D
:102AE000CE0101960E94080ED80111969C918A8110
:102AF0009813CECFBE016B5F7F4FC1010E94E309E7
:102B0000882331F28C81823041F48B85D82ED09489
:102B1000DD1CDD24DD1C87FDC12CF801828181FDD7
:102B200003C08B8180FFBDCFD50112968D919C9102
:102B300042E350E060E070E087960E94360CB1CF2F
:102B4000D50112968D919C91DD24D39463E070E0C1
:102B5000BACE0F931F93CF93DF93EC018B018AE1E1
:102B60008F831A86198648871A8A6EA17FA1FB0176
:102B7000719684913197E491E98B8E8F625F7F4FDC
:102B800042E050E0CE0142960E9442296EA17FA110
:102B90006D5F7F4F4AE050E0CE0144960E9442298B
:102BA00089A58F8F6EA17FA16E5E7F4F42E050E0BE
:102BB000CE0180960E944229BE01695F7F4FA80125
:102BC000CE01DF91CF911F910F910C949E13EF9244
:102BD000FF920F931F93CF93DF9300D01F92CDB737
:102BE000DEB78C01E62EFC0180858770F82EC801C7
:102BF0000E942B09F2E0EF1230C0F8010789108D16
:102C0000F801F680F394F68264817581CE01019615
:102C10000E943D114F2DBE016F5F7F4FC8010E9482
:102C2000A915F8018281938161E070E002960E940B
:102C3000430FF8018281938140ED57E060E070E03E
:102C400087960E94360C0F900F900F90DF91CF91D6
:102C50001F910F91FF90EF900895F5E0EF12F3CFE1
:102C6000F8018789908DF5E0FF120BC08A960E94CB
:102C7000FB108111E8CFF8018789908D0E94101117
:102C8000E2CFFC018281938167E070E002960E94AE
:102C9000430FD9CF2F923F924F925F926F927F92C4
:102CA0008F929F92AF92BF92CF92DF92EF92FF925C
:102CB0000F931F93CF93DF93CDB7DEB7A8970FB6CF
:102CC000F894DEBF0FBECDBF8C017B011BA21AA200
:102CD00019A2BE016F5D7F4FDC0196968D919C918C
:102CE0000E94750FF7013796F8A7EFA3BE016F5D3D
:102CF0007F4FCF010E94E309C82E882309F468C0E2
:102D0000D8011296CD90DC905601B2E3AB0EB11C07
:102D1000C5010E94630B8AE090E0A0E0F60187AB5A
:102D200090AFA1AF81E082AFB5018DE793E00E9443
:102D3000490A87E193E00E942309C7010E94080E17
:102D40005701F4E0AF0EB11CB501C801C6960E9450
:102D5000E3098111ABC0D70114968C911497F80147
:102D600086AB15968C91159787AB16968C91169716
:102D700080AF11968C91119781AF13968C91139718
:102D80001A96DC901A97813009F08FC31B963C90FD
:102D9000FAE03F1294C0D80196966D917C916D5FD8
:102DA0007F4F4AE050E0CE0101960E9442294AE05E
:102DB00050E0BE016F5F7F4FC7010C960E94BD2E91
:102DC000892B09F4F3C0D12CC12C32E0332EB0C0D2
:102DD000D7018C91898311968C9111978A831296D1
:102DE000BC901297BB821396DC901397DC821496EA
:102DF0008C9114978D8315968C9115978E831696CA
:102E00008C9116978F8317968C91179788871896B1
:102E10008C911897898719968C9119978A871A9699
:102E20008C911A978B871B96AC90AC8681E1F70149
:102E30003C96DE011D9601900D928A95E1F765E7BB
:102E400073E0CE0108960E94E309882339F0B1E0CF
:102E5000DB1204C0EAE0AE1609F452CFB2FE05C0A0
:102E600080EC8D0D823008F44BCF8FE093E00E9410
:102E70002309C7010E94080E8C2DA8960FB6F8945E
:102E8000DEBF0FBECDBFDF91CF911F910F91FF909D
:102E9000EF90DF90CF90BF90AF909F908F907F90FA
:102EA0006F905F904F903F902F900895D801D996E2
:102EB0009C91F701818198134ECFC12CDDCFB1E0F9
:102EC0003B12D3C0DD2009F47ECFD80199968C91B6
:102ED00099978D1508F477CF9C96CD90DC90C7011B
:102EE0000E94000A3701BCE06B0E711C4601E8E04D
:102EF0008E0E911C813009F076C0B301C4010E948E
:102F00001212C4010E94EC118F3F09F45ECF682FAA
:102F1000C6010C960E94DA0344E050E0BC01C301F4
:102F20000E945B2981E0F80180A7C6010E949410ED
:102F3000F701828185FF2CC0BE016F5D7F4F8FA19D
:102F400098A50E94E309882319F1F1E03F12F8C225
:102F5000C114D10409F4E2C2D8011296ED91FC919A
:102F600081A99EE0F701908392E0938312823286DA
:102F7000D6011B969C919387148615868687A5019A
:102F8000B701C8010E949E13F60182858E7F828759
:102F9000D80112968D919C9142E350E060E070E080
:102FA00087960E94360CCC24C39466CFF8018281A8
:102FB000938161E070E002960E94430FD80112965F
:102FC0008D919C9140ED57E060E070E087960E9403
:102FD000360CF7014081B501C8010E94A915D12C1A
:102FE000C12C312CA5CFD70150968C9150971C96AF
:102FF0009C911C9799831D969C911D979A831E9670
:103000009C919B838C83B301C4010E941212BE0168
:103010006F5F7F4FC4010E941212C4010E94EC1125
:103020008F3F09F4D2CE2601BCE04B0E511C682F15
:10303000C2010E94DA0344E050E0BC01C3010E94D7
:103040005B29C4010E94EC118F3F51F0682FC2012F
:103050000E94DA0344E050E0BC01CE01019660CF4B
:10306000B301C4010E941212B0CEF2E03F123AC086
:10307000DD2009F4A8CED80199968C9199978D15E9
:1030800008F4A1CE9C96CD90DC904601B8E08B0E62
:10309000911CB701645F7F4FC4010E941212782E09
:1030A000C7010E94000A823081F4F701808994856B
:1030B000998395859A8396859B838C83BE016F5FE8
:1030C0007F4FC4010E9412127822772009F430CF7A
:1030D00081E0D80198968C93C6010E949410332405
:1030E000339426CFB3E03B127AC0DD2009F4FFC051
:1030F000F80191A59D1508F472CF24A435A4D70139
:1031000011969C91119714962C9114972E8F1596C9
:103110002C9115972F8F16962C9128A34801B7E074
:103120008B0E911C2AE1278320E1228720E2218750
:10313000818B90873801E2E16E0E711C6301412C96
:10314000512CF8E02F0E311C23E0421641F1442DA2
:10315000B101CE0101960E94D411CE0101960E94C8
:10316000D4098823D1F0539484E0FE013196D6012E
:1031700001900D928A95E1F784E0C80ED11C94E08D
:1031800059120BC0AE01425E5F4FB401C8010E94EC
:103190009E136301512C882311F04394D5CF84E012
:1031A000D6011D928A95E9F75394852D880F880FD3
:1031B00099E0980F983070F4F8011782F801818532
:1031C0008F7D8187AE01425E5F4FB401C8010E94CE
:1031D0009E1305CF865FD80117968C93EFCFF4E04E
:1031E0003F128BC0D70150962C91A701445F5F4FCF
:1031F0006D2DC8010E94901229833A834B835C8312
:103200006D837E838F83E981FA81FEA3EDA322E0A3
:10321000322EEF2B09F4B7C0D70111968C9111977C
:1032200014969C9114979E8F15969C9115979F8F3D
:1032300016969C9198A32801B7E04B0E511C9AE179
:10324000F801978390E1928790E2918792E0918BC9
:1032500080871801F2E12F0E311C6101712C612C65
:103260001CA28B818615170451F14CF1EC81FD8174
:10327000862D0995D6018C934601B2E08B0E911CE8
:103280008DA19EA1860D971D0E946510F601818378
:10329000FCA1FF5FFCA3F83059F4AE01425E5F4F22
:1032A000B201C8010E949E13882339F041011CA27B
:1032B0002FEF621A720A6401D4CF61011CA2D601F9
:1032C0001C9211961C928CA18A5F880F9FEF980F19
:1032D000983078F4F8011782F80181858F7D818715
:1032E000AE01425E5F4FB201C8010E949E13312CB5
:1032F0004AC0D80117968C93EFCFFEE03F122AC048
:10330000D8019C96CD90DC909D97F7012181129673
:10331000ED91FC9181A9D6011B969C91F801378211
:1033200030E1328736E0318B2087928B138A148A02
:10333000858B82E08187A501B801695F7F4FC80155
:103340000E949E13D6011A968C911A978E7F1A9618
:103350008C9345CEB5E03B1219C0F801D6A6D70133
:1033600050962C91A701445F5F4F6D2DC8010E94BC
:103370009012F80127A730AB41AB52AB63AB74ABF3
:1033800085AB33243394D12CC12CD2CDF6E03F123F
:1033900033C0D80198968C9398979F962D913C9125
:1033A000D0979A968D919C919B9728173907F1F4A5
:1033B00012968D919C9170E060E002960E94430FFE
:1033C000D801ED91FC910480F581E02DC8010995AB
:1033D0008FEFD8019E968C938AE0F701808382E07C
:1033E000838382831286A501B701F0CEF80184A5FC
:1033F00095A50E949410ECCFF8E03F1238C0D80198
:103400009E968C918D11BDCFF80187A590A9892B2F
:1034100009F4B7CFD7018C918B3008F48BE095EF8E
:10342000792E780E4701BCE08B0E911C64018C2D27
:103430008819871508F0A5CFF6016180D801D496C8
:10344000ED91FC91D6018C9109958F3F61F0F801C7
:1034500067A570A9680F711D698241E050E0CE0137
:1034600001960E945B29F2E0CF0ED11CE0CF29E04B
:103470003212A9CCD70111968C9194E1F80197836F
:1034800090E192871186118A8087128A66A177A1BE
:103490006D5F7F4F4AE050E0C80142960E9442298A
:1034A000A501B801695F7F4F91CE813169F5F4E0E4
:1034B000DF1619F02AECD21292CD8AE0D7018C9354
:1034C00082E013968C93139712961C9212971A9679
:1034D0001C92A501B701C8010E949E13BAECDB1231
:1034E0000FC08AEF92E00E94250988E19CE00FB6A8
:1034F000F894A895809360000FBE90936000FFCF72
:10350000C8010E9410116BCD823109F05CCC85E0BE
:1035100093E00E942509D12CC12CE1CD8AE0D7018E
:103520008C9382E013968C93139712961C921297A9
:103530001A961C92A501B701C8010E949E1328CDBE
:10354000B2E03B1225CD8AE0F701808333821282FC
:1035500080E88287EFCF0C94342E0C94342E0C9498
:10356000342E0C94342ECF93DF93EC010E9400098B
:10357000CE01DF91CF910C94342E0C94342E0C9408
:10358000342ECF93DF93EC010E945409CE01DF91DA
:10359000CF910C94342E0C94342E0C94342E0C9425
:1035A000342E8F929F92AF92BF92CF92DF92EF9282
:1035B000FF920F931F93CF93DF93EC0118E0C12C80
:1035C000D12C760100E400937C0080917A00806425
:1035D00080937A0080917A0086FDFCCF80917800FC
:1035E00090917900C80ED91EE11CF11C62E070E0D8
:1035F00080E090E00E94A503115029F793E0F69433
:10360000E794D794C7949A95D1F7C601892B91F482
:103610001982188287E792E0DF91CF911F910F9175
:10362000FF90EF90DF90CF90BF90AF909F908F90E2
:103630000C9425092FEFC21623E0D20688F08FEFF5
:103640009FEF99838883DF91CF911F910F91FF9016
:10365000EF90DF90CF90BF90AF909F908F900895A4
:10366000B60190E080E00E94EF2A4B015C01AC01C2
:103670009B0160E070EC8FE794E40E94DC2920E07D
:1036800030E44CE156E40E94A62BA50194010E946F
:103690004E2A9B01AC0160E070E48CE196E40E944C
:1036A0004E2A2EE63BED46EB5FE30E94132C20E012
:1036B00030E040E251E40E94A62B4B015C0120E087
:1036C00030E0A9010E94492A87FD36C020E03FEF83
:1036D0004FE757E4C501B4010E94A12B18163CF432
:1036E000812C99249A948FE7A82E87E4B82EC501DF
:1036F000B4010E94C02A7983688382E692E00E9426
:103700002309C6010E94910D8EE592E00E942309D3
:1037100083E592E00E94230988819981DF91CF910E
:103720001F910F91FF90EF90DF90CF90BF90AF90DF
:103730009F908F900C94970D812C912C5401D7CF92
:103740003F924F925F926F927F928F929F92AF9231
:10375000BF92CF92DF92EF92FF920F931F93CF937E
:10376000DF93CDB7DEB72E970FB6F894DEBF0FBE4E
:10377000CDBF8C01DC011896ED91FC91E280F380C5
:10378000D7015796ED91FC910680F781E02DC70196
:1037900047960995F70192A381A3D8011896ED9158
:1037A000FC9119970280F381E02D81A192A1D0961E
:1037B0009C938E939F97DB968C91882391F163E382
:1037C0008CEA0E94BB0760E570E080E090E00E9418
:1037D000A50385E1F82E81E00E9468061092D401CD
:1037E0008093D301811121C1FA94F11025C1FE010A
:1037F00031967F0186E0DF011D928A95E9F786E028
:103800000E9468061092D4018093D3016E01B7E044
:10381000CB0ED11C863008F016C18DE691E00E94D7
:103820002509F80185A996A994A783A787A990AD32
:1038300096A785A7C801CC960E94D11AD801DC961C
:103840008D919C91DD97D2969C938E93D1978EE724
:1038500091E00E942309F80163A574A5072E000CCE
:10386000880B990B0E943E0D81EC91E00E94C60EE0
:10387000D8019D968D919C910E94910D81EC91E0D3
:103880000E94C60EF80181A992A90E94970D8FEAA5
:1038900091E00E942309D8019F968D919C910E94EE
:1038A000970DD8011896ED91FC91F680F394F6826D
:1038B0006801BEE0CB0ED11CF801A1A872A800845B
:1038C000F185E02D0280F381E02DD8019F966C9068
:1038D0009F97D0965C90D0979D964C909D979E9682
:1038E0003C909E979B968D909C90E92CE894E7F8ED
:1038F000278D81A192A164E670E00E947F2926179E
:10390000170619F010F06894E7F88AE991E00E9430
:103910002309B401990C880B990B0E943E0D81EC90
:1039200091E00E94C60E842D932D0E94910D81EC92
:1039300091E00E94C60E862D952D0E94910D81EC7E
:1039400091E00E94C60E8A2D972D0E94970D8F2D13
:1039500068E20E94732934E0B32E923011F422E21F
:10396000B22E8DE891E00E9423098F2D0E94860DD2
:1039700081E1F801868780E7818BB08AE08EF78647
:10398000818E328E438E548E658E768EA78EE08425
:10399000F184B2FEFBC08B2D8F7C8460808B45E769
:1039A00053E0B601C7010E949E13D8011896ED910D
:1039B000FC91C480D58040E060E2C6010E942311E2
:1039C000F82E40E061E2C6010E9423112F2D30E065
:1039D000322F2227280F311DA4E6B0E00E94B5291E
:1039E000F801658376838783B8018DE793E00E94B1
:1039F000490A81E0D801D3968C932E960FB6F8949D
:103A0000DEBF0FBECDBFDF91CF911F910F91FF9011
:103A1000EF90DF90CF90BF90AF909F908F907F906E
:103A20006F905F904F903F90089589E693E00E94D9
:103A3000450787FDD9CEDBCE61E070E080E090E005
:103A40000E94A503C8CE89E693E00E944507F701CE
:103A500081937F01CE16DF06B1F7CC80D12CF12CFB
:103A6000E12C2A8130E050E040E06CE0220F331F6F
:103A7000441F551F6A95D1F78B8190E0B0E0A0E01C
:103A800074E0880F991FAA1FBB1F7A95D1F7822B6C
:103A9000932BA42BB52BB701A601E4E0769567958F
:103AA00057954795EA95D1F79A01AB01282B392B09
:103AB0004A2B5B2BA8EEB3E00E94CB294B015C01A3
:103AC000F4E1B694A79497948794FA95D1F7760188
:103AD000DD24CC24A7019601222733274F705527D8
:103AE000CD80DE80DC24CD24DC24F12CE12C2C29BB
:103AF0003D294E295F29A0EDB7E00E94CB29B4E112
:103B00009695879577956795BA95D1F7645F7140DB
:103B100081099109D801D9962C91D997022E000CD0
:103B2000330B621B730BD6967C936E93D597DA9604
:103B30006C91062E000C770B860E971EB9EE8B1635
:103B4000B3E09B06D8F4F80190AE87AA8AE591E02D
:103B50000E942309F80165A976A9072E000C880B9D
:103B6000990B0E943E0D86E591E00E942309D80141
:103B7000D7968D919C910E94970D53CE88EE93E03D
:103B8000D801D8969C938E93D797E0CF312CB12C47
:103B9000A12C4801F8E08F0E911C380182E1680EDB
:103BA000711C4A2DB401CE010B960E94D411CE0196
:103BB0000B960E94D409582E882309F46AC0412C20
:103BC000442DB401CE0107960E94D411BE01695F55
:103BD0007F4FCE010B960E94E309811106C04394EA
:103BE00093E04912EDCF44244A944A141B040CF488
:103BF00050C0198618861F82BE01695F7F4FD701AA
:103C000096968D919C910E94750FBE01695F7F4FC2
:103C1000CE010B960E94E309882309F45AC0B30130
:103C2000F70186A197A10E94750FD80152968C9139
:103C3000529755968C93559753968C9153975696C9
:103C40008C93569754968C91549757968C9365E71E
:103C500073E0C3010E94E309882329F0F8018089F9
:103C60008F7D8460808BD80150968C91509785FF12
:103C700026C08F7D50968C93D701ED91FC910680E4
:103C8000F781E02DB601C7010995F80180898062AE
:103C9000808BBFEFAB1ABB0AE3E0AE16B10409F0AC
:103CA00080CF311082CED70114966D917C91CE01D8
:103CB00007960E943D11AE01495F5F4F72CED7015A
:103CC000ED91FC910680F781E02DB601C7010995C1
:103CD000E0CFAE01455F5F4FB401CE0107960E9471
:103CE00054128F8198850E946510F801908980FF99
:103CF0000BC09061908BAE01455F5F4FB601C7016D
:103D00000E949E13352CC5CF9F7E908BF4CF1F92BF
:103D10000F920FB60F9211242F933F938F939F937F
:103D2000AF93BF938091540290915502A091560297
:103D3000B09157023091530226E0230F2D3758F5EA
:103D40000296A11DB11D20935302809354029093BB
:103D50005502A0935602B093570280915802909159
:103D60005902A0915A02B0915B020196A11DB11DAA
:103D70008093580290935902A0935A02B0935B0229
:103D8000BF91AF919F918F913F912F910F900FBE57
:103D90000F901F90189529E8230F0396A11DB11DC0
:103DA000D2CF1F920F920FB60F9211242F933F93F1
:103DB0004F935F936F937F938F939F93AF93BF9333
:103DC000EF93FF93E0910201F09103010995FF91B8
:103DD000EF91BF91AF919F918F917F916F915F9183
:103DE0004F913F912F910F900FBE0F901F901895FC
:103DF0001F920F920FB60F9211242F933F934F9360
:103E00005F936F937F938F939F93AF93BF93EF9342
:103E1000FF93E0910001F09101010995FF91EF916D
:103E2000BF91AF919F918F917F916F915F914F91D2
:103E30003F912F910F900FBE0F901F9018951F92DA
:103E40000F920FB60F9211242F933F934F935F93CE
:103E50006F937F938F939F93AF93BF93EF93FF9352
:103E60008CEC92E00E946804FF91EF91BF91AF91BA
:103E70009F918F917F916F915F914F913F912F9182
:103E80000F900FBE0F901F9018951F920F920FB6B4
:103E90000F9211242F938F939F93EF93FF93E091B1
:103EA000DC02F091DD028081E091E202F091E30218
:103EB00082FD1BC090818091E5028F5F8F732091FE
:103EC000E602821741F0E091E502F0E0E453FD4F95
:103ED000958F8093E502FF91EF919F918F912F91A4
:103EE0000F900FBE0F901F9018958081F4CF1F92F6
:103EF0000F920FB60F9211242F933F934F935F931E
:103F00006F937F938F939F93AF93BF93EF93FF93A1
:103F10008091B900887F803609F44AC0F0F5883274
:103F200009F4A7C018F5803109F49BC0B8F48823C0
:103F300009F4F9C0883009F494C0FF91EF91BF9162
:103F4000AF919F918F917F916F915F914F913F9131
:103F50002F910F900FBE0F901F901895883109F484
:103F600088C0803251F78093A00214C0803409F4D5
:103F70009DC040F48033B9F38833F9F68093A002F2
:103F800085ECB0C0803509F485C0883509F496C049
:103F9000883499F60E94C90FD0CF883909F48CC0B3
:103FA00038F5883729F050F4883611F0803729F633
:103FB00083E08093A20210921C0257C0883809F453
:103FC0007BC0803919F0803809F0B7CF80911C028E
:103FD000803208F071C0E0911C0281E08E0F809366
:103FE0001C028091BB00F0E0E450FE4F80833DC096
:103FF000803B39F0E0F4803A09F479C0883A09F05E
:104000009CCF84E08093A2021092F9011092F801F3
:10401000E091F601F091F70109958091F801811185
:104020000FC081E08093F8011092D60109C0803C56
:1040300009F4A6CF883C09F4A3CF883B09F07DCFD3
:10404000E091F90181E08E0F8093F901F0E0EA52EE
:10405000FE4F80818093BB009091F9018091F8011F
:1040600029C080917D028093BB0085EC8093BC00C9
:1040700064CF90919F0280919E02981758F5E0912D
:104080009F0281E08E0F80939F02F0E0E258FD4F87
:104090008081E9CFE0919F0281E08E0F80939F02A3
:1040A0008091BB00F0E0E258FD4F808390919F0229
:1040B00080919E029817C8F285E8D8CFE0919F02C0
:1040C00081E08E0F80939F028091BB00F0E0E25868
:1040D000FD4F80838091A10281115CCF81E08093AC
:1040E0007C0284EA8093BC001092A20226CF85EC69
:1040F0008093BC001092A20280911C02803230F4A6
:10410000E0911C02F0E0E450FE4F108260911C022E
:1041100070E0E091FA01F091FB018CEF91E00995DC
:1041200010921C020ACF1092A00234CF1F920F925D
:104130000FB60F9211240F900FBE0F901F9018957D
:104140001F920F920FB60F9211242F933F934F930C
:104150005F936F937F938F939F93AF93BF93EF93EF
:10416000FF93E8E7F3E084818F5F8483CF010E94AF
:10417000A40CFF91EF91BF91AF919F918F917F918F
:104180006F915F914F913F912F910F900FBE0F90C4
:104190001F9018951F920F920FB60F9211242F9314
:1041A0003F934F935F936F937F938F939F93AF93BF
:1041B000BF93EF93FF938DE793E00E94A40CFF91D0
:1041C000EF91BF91AF919F918F917F916F915F918F
:1041D0004F913F912F910F900FBE0F901F90189508
:1041E0001F920F920FB60F9211248F930FB6F8946F
:1041F000A8958091600088618093600010926000B3
:104200000FBE8F910F900FBE0F901F9018951F92A9
:104210000F920FB60F9211242F933F934F935F93FA
:104220006F937F938F939F93AF93BF93CF93EF93AE
:10423000FF9399B1C0911F0280914F0230914C02BF
:10424000292F209523238923822B20916D00C927B4
:10425000C223C82390931F02CC23C1F1C0FF05C025
:10426000E0912002F09121020995C1FF05C0E09183
:104270002202F09123020995C2FF05C0E0912402B9
:10428000F09125020995C3FF05C0E0912602F09147
:1042900027020995C4FF05C0E0912802F091290288
:1042A0000995C5FF05C0E0912A02F0912B020995FE
:1042B000C6FF05C0E0912C02F0912D020995C7FFC1
:1042C00005C0E0912E02F0912F020995FF91EF9128
:1042D000CF91BF91AF919F918F917F916F915F919E
:1042E0004F913F912F910F900FBE0F901F901895F7
:1042F0001F920F920FB60F9211242F933F934F935B
:104300005F936F937F938F939F93AF93BF93CF935D
:10431000EF93FF9396B1C09130028091500230919B
:104320004D02292F209523238923822B20916C0075
:10433000C927C223C82390933002CC2351F1C0FF78
:1043400005C0E0913102F09132020995C1FF05C02C
:10435000E0913302F09134020995C2FF05C0E0916B
:104360003502F09136020995C3FF05C0E09137028E
:10437000F09138020995C4FF05C0E0913902F0912F
:104380003A020995C5FF05C0E0913B02F0913C025D
:104390000995FF91EF91CF91BF91AF919F918F912F
:1043A0007F916F915F914F913F912F910F900FBE31
:1043B0000F901F9018951F920F920FB60F92112415
:1043C0002F933F934F935F936F937F938F939F931D
:1043D000AF93BF93CF93EF93FF9393B1C0913F02FD
:1043E0008091510230914E02292F20952323892359
:1043F000822B20916B00C927C223C82390933F02D0
:10440000CC2351F1C0FF05C0E0914002F091410280
:104410000995C1FF05C0E0914202F0914302099560
:10442000C2FF05C0E0914402F09145020995C3FF27
:1044300005C0E0914602F09147020995C4FF05C00E
:10444000E0914802F09149020995C5FF05C0E0914D
:104450004A02F0914B020995FF91EF91CF91BF91E4
:10446000AF919F918F917F916F915F914F913F910C
:104470002F910F900FBE0F901F9018951F93CF9301
:10448000DF93ECECF2E01382128288EE93E0A0E07E
:10449000B0E084839583A683B78326E131E031833E
:1044A000208325EC30E03587248724EC30E0378703
:1044B000268720EC30E0318B208B21EC30E0338BF1
:1044C000228B22EC30E0358B248B26EC30E0378BCE
:1044D000268B118E128E138E148EE9E6F3E0138272
:1044E000128284839583A683B78388E291E09183C7
:1044F0008083E5E7F3E0128211821082EDE7F3E0BA
:104500001182108213821282E8E7F3E01182108296
:10451000138212821482E2E1F4E01582148217827F
:10452000108611868EE891E093838283128A138A23
:10453000148A158A11E0168B1683128E118E138E33
:10454000148E158E168E82E891E0908F878B178ED1
:1045500010A212A211A213A214A215A216A212A6B0
:1045600011A614A615A616A688E791E090A787A322
:1045700017A613A711AA15AA14AA17AA10AE11AE4E
:104580008EE691E093AB82AB12AE16AB88E083AFC0
:104590008EE494E00E94C609CAE9D3E08AE491E07F
:1045A000998388831B821A8284EC93E09D838C8399
:1045B0001E8281EA93E00E94C60980E290E09DA3FA
:1045C0008CA32BE135E03FA32EA318A619A79BA728
:1045D0008AA78FEF8EA718AA1FA619AA1BAA1AAA24
:1045E0001DAA1CAA18AE1FAA1EAA86E591E09983EF
:1045F00088831092DD031092DC03EEEDF3E08081FE
:104600008E7F8D7F80831092DF031092E1031092E2
:10461000E0031DAE1CAE1EAE80E797E1A0E08093E4
:10462000D9039093DA03A093DB0380E491E09BAF7E
:104630008AAF82EE93E00E94C609109200041092A5
:10464000FF031092020410920104109204041092CD
:1046500003041092060410920504109307048EE0E0
:104660008093080410920A041092090410920C041A
:1046700010920B0410920D0410920E0410920F046D
:10468000109211041092100484ED93E09DA78CA762
:1046900082E691E099838883E1E8F3E01382128255
:1046A0001482158216821782A9E8B3E08C91887F64
:1046B000816088608C93118617861686108A118A0D
:1046C000128A138A8AE391E095878487F58BE48BBD
:1046D00088E991E091838083D08FC78B8CE291E051
:1046E00093878287DF91CF911F910895CF93DF93B6
:1046F000CDB7DEB728970FB6F894DEBF0FBECDBF9B
:10470000789484B5826084BD84B5816084BD85B5AC
:10471000826085BD85B5816085BD80916E008160B8
:1047200080936E001092810080918100826080935E
:104730008100809181008160809381008091800060
:104740008160809380008091B10084608093B1008B
:104750008091B00081608093B00080917A00846085
:1047600080937A0080917A00826080937A008091B1
:104770007A008E7F80937A0080917A00806880939F
:104780007A001092C100E091DC02F091DD0282E03B
:104790008083E091D802F091D9021082E091DA0290
:1047A000F091DB0280E180831092E402E091E0026C
:1047B000F091E10286E08083E091DE02F091DF0279
:1047C000808180618083E091DE02F091DF02808150
:1047D00088608083E091DE02F091DF028081806852
:1047E0008083E091DE02F091DF0280818F7D808303
:1047F0008FE494E00E942509E090C403F090C50383
:104800002BE0E20EF11CD12C3AE9A32E33E0B32EBB
:1048100044EF642E77247394812C8091C303D816BF
:1048200008F054C0ED2DF0E0EE0FFF1FEA53FC4FEF
:1048300000811181D394F801B186A086D386F586D4
:10484000E486FA82E98262E0CE0101960E94771046
:10485000C82EF801848595859E838D8361E0CE0105
:1048600005960E9477104C2D682FC801C5960E94AE
:104870006B0960E08EE00E944403C801CC960E9460
:10488000D11A80E094E00E94250989E294E00E9418
:10489000250980E294E00E94230983EC91E00E94C4
:1048A000C60E8EE094E00E94230981E194E00E940C
:1048B0002509F801658276828782B8018DE793E049
:1048C0000E94490AF2E1EF0EF11CA7CF80EF93E0BE
:1048D0000E9423098091BE039091BF030E94910D15
:1048E0008CEE93E00E942309E091C603F091C70388
:1048F0008485958542960E94970D60E090E080E067
:104900000E94B4098C0181EEE82E83E0F82E9CEE23
:10491000C92E93E0D92EF7016491C8010E94B40911
:104920008C01FFEFEF1AFF0ACE14DF04A1F7EE248B
:10493000E3948091C3038E1510F1F12C8F2D0E940A
:10494000AD08682FC8010E94B4098C01F39423E0DC
:10495000F212F4CF80E00E94D803682FC8010E94B1
:10496000B4098C0180E00E949008682FC8010E9461
:10497000B40963E00E94B4098C01E394DACF44E007
:1049800050E070E060E0CE0105960E944B2930E0D7
:1049900020E02E6F3A6C09831A832B833C836D8150
:1049A0007E818F819885061717072807390709F434
:1049B0009CC00E94760E8FEC93E00E94230982ED4A
:1049C00093E00E94230969817A818B819C810E94F6
:1049D000760E8FEC93E00E9423098FEF91EEE4E0D6
:1049E00081509040E040E1F700C0000044E050E01A
:1049F00070E060E0CE0101960E945B296BE070E000
:104A00008091C4039091C5030E94F30E85E00E943B
:104A10005C098F3FC9F0082F10E08091C40390918A
:104A2000C503800F911F0E9465106091C4037091AF
:104A3000C503600F711F8F738064898341E050E06C
:104A4000CE0101960E945B296AE182E10E94D30EA9
:104A500066E084E10E94D30E60E080E20E94D30E03
:104A6000882321F060EF81E20E94D30E67E084E2A8
:104A70000E94D30E60E082E20E94D30E882321F0D0
:104A800064E583E20E94D30E10E08091C3031817FF
:104A900060F5E12FF0E0EE0FFF1FEA53FC4FE080DE
:104AA000F18062E170E0F701848595850E94F30E44
:104AB000F701848595859A83898363E070E00E947D
:104AC000F30E40E061E0CE0101960E94160F40E037
:104AD00062E0CE0101960E94160F40E063E0CE0135
:104AE00001960E94160F1F5FD0CF82E194E0909351
:104AF0009D0380939C031B821A821982BE016F5F03
:104B00007F4F8091C0039091C1030E94750F84E094
:104B10008093260461E00E94440384E194E00E94B3
:104B2000B708E89889EE93E0909301018093000123
:104B300082E494E090931E0280931D0284EC93E043
:104B40000E94230960E082E00E94440382EC93E02B
:104B50000E94250961E08AE00E94440361E08BE045
:104B60000E94440360E08CE00E94440361E08DE019
:104B70000E94440380E58CBD61E08AE00E94160338
:104B800061E08DE00E94160360E08BE00E94160356
:104B90000E9444080E943E080E943408F5E8FA95F5
:104BA000F1F700000E9444080E943E0880E30E9442
:104BB00038080E943E080E9434080EE813E0A2EC78
:104BC000CA2EA3E0DA2EFF24F394F8013196449123
:104BD000F801649123E082E494E00E9416108111B0
:104BE00001C0F12C0E5F1F4FC016D10671F781E88E
:104BF00093E00E94230960EC81E30E9460080E9418
:104C0000750D85E793E00E94230983E30E9448081D
:104C10008FEA93EB0197F1F700C0000023E040EC2E
:104C20006EE382E494E00E94161088E793E00E940D
:104C30002509FF2059F00E9444080E943E080E9466
:104C400034080E94570884E30E9448088DED98E0DC
:104C50009093010180930001809169008C7F8260B4
:104C600080936900E89A80E180938100109280002F
:104C7000109285001092840080E49CE99093870054
:104C80008093860081E1809381000E94760866E02F
:104C900070E0F11002C068E070E084E194E00E94EE
:104CA000430F8B8190E001962AE0289F8001299F85
:104CB000100D112484E494E00E94630B24E630E09C
:104CC000D8010E94C42928EE33E040E050E00E9461
:104CD00093292093490430934A0440934B0481E084
:104CE00080934C0464E474E08DE793E00E94490AE9
:104CF00087E880937A0010927B00E0912904F0917C
:104D00002A040680F781E02D89E294E009959093CA
:104D100034048093330480E09BEEA1E4B0E0809300
:104D2000350490933604A0933704B09338048093ED
:104D30002E0490932F04A093300469E274E08DE771
:104D400093E00E94490A8AE18093310482E693E06D
:104D50000E942309809131040E94860D87E180938F
:104D600032048FE493E00E942309809132040E9470
:104D7000860D8091BE03FCEFEF2EE80E855090E08B
:104D800004960E946510D82E00E01EE5EE2DE1503D
:104D9000FF0B7F01802F90E08E159F0534F4049661
:104DA0000E94651018270F5FF5CF1D1131C084E0F8
:104DB00090E00E946510182F85E090E00E94651039
:104DC000082F80EA810F8B3018F58DE393E00E9465
:104DD0002309812F0E94750D802F0E94750D85E794
:104DE00093E00E94230923E041E26DE082E494E035
:104DF0000E94161023E0412F6EE082E494E00E94AE
:104E0000161023E0402F6FE082E494E00E94161019
:104E100088E080938A0362E00E944403E0EBF4E0C0
:104E20008491ECE9F4E09491923009F0D9C020919A
:104E30005102282B2093510220914E02282B2093BF
:104E40004E02E3E4F4E0A491923009F0D7C0B0E060
:104E5000AA0FBB1FA05CBD4F2CE23CE02D933C93FE
:104E6000EEE8F4E0A591B4919C9190933F022BE67B
:104E700030E030933E0220933D02909168009160B3
:104E800090936800A0913D02B0913E02EC918E2B70
:104E90008C9381E08093C2038AE993E00E946111C0
:104EA00011E08091C303811708F0E1C016E00EE025
:104EB00040E1B42E52E2A52EE12C0E948B0CF82E7C
:104EC0008111DDC0E11004C00E948B0C8111D9C09A
:104ED00080919C0390919D03FC0123AD22FF23C090
:104EE00061EA73E0C0960E94EF128A30E0F01B8204
:104EF0001A821982BE016F5F7F4F8091C00390912B
:104F0000C1030E94750FBE016F5F7F4F85EA93E07A
:104F10000E94E309811107C061EA73E08AE993E026
:104F20000E944A16F82E772473948091C303871544
:104F300008F4A9C0C090C603D090C703F6018285CB
:104F400080FB662460F880FF49C0E0919C03F091EB
:104F50009D03F688168ACF0102960E94B7088090BA
:104F6000A00383948092A00360919E0370919F039D
:104F7000CE0101960E943D11E0919C03F0919D03AA
:104F800081A9F60193850093A103B092A403A09296
:104F9000A3031093AB038092A2039093AC031092EF
:104FA000AD031092AE038093AF03AE014F5F5F4F2E
:104FB00061EA73E08AE993E00E949E13F60182851C
:104FC0008E7F828780919C0390919D03FC01F68ADD
:104FD000F11004C002960E94B708F62C7394A5CF76
:104FE000933009F03DC120915002282B20935002AC
:104FF00020914D02282B20934D0223CF9330D1F4E2
:10500000B0E0AA0FBB1FAF5CBD4F2CE23CE02D937C
:105010003C93E0E9F4E0A591B4919C919093300227
:105020002CE630E030933E0220933D0290916800E0
:10503000926026CF943009F025CFB0E0AA0FBB1FB5
:10504000A05EBD4F2CE23CE02D933C93E2E9F4E0FE
:10505000A591B4919C9190931F022DE630E030937E
:105060003E0220933D0290916800946009CF8091A8
:10507000C6039091C7030E9494101F5F12CFEF2CBC
:105080001CCFE82E21CFE110B4C0F110B2C0809146
:1050900033049091340464E670E00E947F2980918B
:1050A000320486171706C9F0C0F080914D0480FDC8
:1050B00007C00E94011080914D04816080934D04CF
:1050C0000E94E80830E020E050E040E06AE070E054
:1050D00082E592E00E94DD07F3CF809141048111C7
:1050E000B9C00E94E80880916F008E7F80936F00A6
:1050F0008DE793E00E94240A009709F487C0FC0121
:10510000329709F483C0C580D680E780F12C8FE701
:1051100093E00E94240A892B09F069C0F1E0CF16C0
:10512000D104E104F10409F462C080914D0480FDD2
:1051300007C00E94011080914D04816080934D044E
:1051400021E2C21623E0D206E104F10408F062C0B5
:1051500085E6C816D104E104F10408F064C09DE0BE
:10516000C916D104E104F10408F065C0E2E0CE16EE
:10517000D104E104F10408F066C06AE070E0C12CDB
:10518000D12C760130E020E050E040E082E592E072
:105190000E94DD078DE793E00E94240A009719F131
:1051A000FC01329701F121E0C21AD108E108F108AF
:1051B00085819681A781AC016A2F70E04150510929
:1051C000610971094C155D056E057F0530F46C01B0
:1051D000EA2E21E0C21AD108E1088C199D09AE0916
:1051E00085839683A7838DE793E00E94A40C0E9499
:1051F000760880E090E0892B09F45ECE0E9454048A
:10520000882309F459CE0E94000056CEC12CD12C1F
:1052100076017DCF69E070E030E2C32E33E0D32E1B
:10522000E12CF12CAFCF66E070E024E6C22ED12C49
:10523000E12CF12CA7CF63E070E09CE0C92ED12CCB
:10524000E12CF12C9FCF70E060E0C12CD12C7601D5
:10525000C39498CF61E082E494E00E94C008C9CF73
:10526000943009F0EECD20914F02282B20934F026D
:1052700020914C02282B20934C02E3CD8AE993E045
:105280000C945409FB01DC0102C005900D924150C1
:105290005040D8F70895DC01CB01FC01F999FECF0D
:1052A00006C0F2BDE1BDF89A319600B40D924150AE
:1052B0005040B8F70895DC01CB0103C02D910E9446
:1052C000662941505040D0F70895262FF999FECF16
:1052D0001FBA92BD81BD20BD0FB6F894FA9AF99A13
:1052E0000FBE01960895991B79E004C0991F961787
:1052F00008F0961B881F7A95C9F780950895AA1B18
:10530000BB1B51E107C0AA1FBB1FA617B70710F0B0
:10531000A61BB70B881F991F5A95A9F780959095E2
:10532000BC01CD010895A1E21A2EAA1BBB1BFD01F1
:105330000DC0AA1FBB1FEE1FFF1FA217B307E40774
:10534000F50720F0A21BB30BE40BF50B661F771FCC
:10535000881F991F1A9469F76095709580959095AC
:105360009B01AC01BD01CF010895A29FB001B39F85
:10537000C001A39F700D811D1124911DB29F700D5E
:10538000811D1124911D08950E94B529B7FF08952C
:10539000821B930B08950E94B529A59F900DB49F81
:1053A000900DA49F800D911D11240895EE0FFF1FF5
:1053B0000590F491E02D09945058BB27AA270E942C
:1053C000F4290C94672B0E94592B38F00E94602B13
:1053D00020F039F49F3F19F426F40C94562B0EF468
:1053E000E095E7FB0C94502BE92F0E94782B58F3A3
:1053F000BA17620773078407950720F079F4A6F5BA
:105400000C949A2B0EF4E0950B2EBA2FA02D0B01C5
:10541000B90190010C01CA01A0011124FF27591BF9
:1054200099F0593F50F4503E68F11A16F040A22FFF
:10543000232F342F4427585FF3CF46953795279570
:10544000A795F0405395C9F77EF41F16BA0B620B6F
:10545000730B840BBAF09150A1F0FF0FBB1F661FB6
:10546000771F881FC2F70EC0BA0F621F731F841FF9
:1054700048F4879577956795B795F7959E3F08F01F
:10548000B0CF9395880F08F09927EE0F97958795E1
:1054900008950E942C2B08F481E008950E94622A4E
:1054A0000C94672B0E94602B58F00E94592B40F0FF
:1054B00029F45F3F29F00C94502B51110C949B2B35
:1054C0000C94562B0E94782B68F39923B1F3552343
:1054D00091F3951B550BBB27AA2762177307840707
:1054E00038F09F5F5F4F220F331F441FAA1FA9F39D
:1054F00035D00E2E3AF0E0E832D091505040E6958B
:10550000001CCAF72BD0FE2F29D0660F771F881FEB
:10551000BB1F261737074807AB07B0E809F0BB0BDE
:10552000802DBF01FF2793585F4F3AF09E3F5105F2
:1055300078F00C94502B0C949B2B5F3FE4F3983E37
:10554000D4F3869577956795B795F7959F5FC9F7DB
:10555000880F911D9695879597F90895E1E0660F5C
:10556000771F881FBB1F621773078407BA0720F0D5
:10557000621B730B840BBA0BEE1F88F7E09508953E
:105580000E94802B88F09F5798F0B92F9927B75128
:10559000B0F0E1F0660F771F881F991F1AF0BA95D7
:1055A000C9F714C0B13091F00E949A2BB1E0089570
:1055B0000C949A2B672F782F8827B85F39F0B93F62
:1055C000CCF3869577956795B395D9F73EF490958A
:1055D0008095709561957F4F8F4F9F4F0895E89408
:1055E00009C097FB3EF490958095709561957F4F2B
:1055F0008F4F9F4F9923A9F0F92F96E9BB279395D9
:10560000F695879577956795B795F111F8CFFAF4E8
:10561000BB0F11F460FF1BC06F5F7F4F8F4F9F4F19
:1056200016C0882311F096E911C0772321F09EE877
:10563000872F762F05C0662371F096E8862F70E0DD
:1056400060E02AF09A95660F771F881FDAF7880FB7
:105650009695879597F90895990F0008550FAA0B0D
:10566000E0E8FEEF16161706E807F907C0F0121675
:105670001306E407F50798F0621B730B840B950B78
:1056800039F40A2661F0232B242B252B21F40895CD
:105690000A2609F4A140A6958FEF811D811D08956A
:1056A00097F99F6780E870E060E008959FEF80ECD5
:1056B000089500240A941616170618060906089578
:1056C00000240A9412161306140605060895092EDE
:1056D0000394000C11F4882352F0BB0F40F4BF2B4D
:1056E00011F460FF04C06F5F7F4F8F4F9F4F08958D
:1056F00057FD9058440F551F59F05F3F71F0479583
:10570000880F97FB991F61F09F3F79F08795089567
:10571000121613061406551FF2CF4695F1DF08C086
:10572000161617061806991FF1CF869571056105A3
:1057300008940895E894BB2766277727CB0197F94B
:1057400008950E942C2B08F48FEF08950E94B92B26
:105750000C94672B0E94592B38F00E94602B20F08C
:10576000952311F00C94502B0C94562B11240C946F
:105770009B2B0E94782B70F3959FC1F3950F50E0FF
:10578000551F629FF001729FBB27F00DB11D639FF3
:10579000AA27F00DB11DAA1F649F6627B00DA11D99
:1057A000661F829F2227B00DA11D621F739FB00D3F
:1057B000A11D621F839FA00D611D221F749F3327AF
:1057C000A00D611D231F849F600D211D822F762F48
:1057D0006A2F11249F5750409AF0F1F088234AF025
:1057E000EE0FFF1FBB1F661F771F881F9150504091
:1057F000A9F79E3F510580F00C94502B0C949B2BE5
:105800005F3FE4F3983ED4F3869577956795B79517
:10581000F795E7959F5FC1F7FE2B880F911D969531
:10582000879597F90895FA01EE0FFF1F309621052D
:105830003105A1F16115710561F48038BFE39B0763
:1058400049F168949038810561F08038BFEF9B077B
:1058500041F099234AF5FF3FE1053105210519F192
:10586000E8940894E795D901AA2329F4AB2FBE2F19
:10587000F85FD0F310C0FF5F70F4A695E0F7F7393A
:1058800050F019F0FF3A38F49F779F930DD00F90A6
:1058900007FC9058089546F00C94562B60E070E099
:1058A00080E89FE308954FE79F775F934F933F937F
:1058B0002F930E940E2D2F913F914F915F910E9447
:1058C000A62B0C946B2C29F416F00C94502B0C94F2
:1058D0009A2B0C94562B0E94802BA8F39638A0F795
:1058E00007F80F92E8942BE33AEA48EB5FE70E944F
:1058F000BC2B0F920F920F924DB75EB70F920E9482
:10590000562DE8E6F0E00E949D2C4F915F91EF91BB
:10591000FF91E595EE1FFF1F49F0FE57E068442711
:10592000EE0F441FFA95E1F74195550B0E94D02CDC
:105930000F9007FE0C94C42C0895DF93CF931F9310
:105940000F93FF92EF92DF927B018C01689406C067
:10595000DA2EEF010E94B92BFE01E894A591259162
:10596000359145915591A6F3EF010E94F429FE016E
:105970009701A801DA9469F7DF90EF90FF900F91FB
:105980001F91CF91DF9108959B01AC0160E070E021
:1059900080E89FE30C944E2A0C94502B0C948A2D93
:1059A0000E94802BD8F39923C9F3940F511DA3F3C0
:1059B0009150504094F059F0882332F0660F771FD1
:1059C000881F91505040C1F79E3F51052CF7880F1A
:1059D000911D9695879597F908955F3FACF0983E95
:1059E0009CF0BB27869577956795B79508F4B160CD
:1059F0009395C1F7BB0F58F711F460FFE8CF6F5FC5
:105A00007F4F8F4F9F4FE3CF0C949B2B16F00C943E
:105A10008A2D0C94562B68940C94502B0E94802B4A
:105A2000A8F39923C1F3AEF3DF93CF931F930F93A2
:105A3000FF92C92FDD2788232AF02197660F771F51
:105A4000881FDAF720E030E040E85FEB9FE3883919
:105A500020F0803E38F021968F770E94DD29E0E922
:105A6000F0E004C00E94DD29EDEBF0E00E949D2CE7
:105A70008B01BE01EC01FB2E6F5771097595771FE5
:105A8000880B990B0E94F12A28E132E741E35FE39A
:105A90000E94B92BAF2D9801AE01FF900F911F917D
:105AA000CF91DF910E94F4290C94672BFA01DC015D
:105AB000AA0FBB1F9B01AC01BF5728F42227332735
:105AC0004427507820C0B75190F4AB2F002446955E
:105AD00037952795011CA395D2F3002071F0220F72
